:100000000C9434000C94BC000C945A000C945A00CC
:100010000C945A000C945A000C945A000C945A00F8
:100020000C945A000C945A000C945A000C948000C2
:100030000C945A000C945A000C945A000C945A00D8
:100040000C945A000C945A000C945A000C945A00C8
:100050000C945A000C945A000C945A000C945A00B8
:100060000C945A000C945A0011241FBECFEFD4E018
:10007000DEBFCDBF14BE88E10FB6F8948093600058
:10008000109260000FBE11E0A0E0B1E0E8E9F6E0F8
:1000900002C005900D92A630B107D9F711E0A6E095
:1000A000B1E001C01D92A831B107E1F70E94F10053
:1000B0000C944A030C9400000E94E40180910B010F
:1000C00080930C018091090180930D0180910A01B8
:1000D00080930E018091080180930F0180910601A9
:1000E000809310018F5F80930601809117018093A8
:1000F00011018CE091E00E94BE010E941C02089553
:100100001F920F920FB60F9211242F933F934F938C
:100110005F936F937F938F939F93AF93BF93EF936F
:10012000FF93F8940E945C007894FF91EF91BF9147
:10013000AF919F918F917F916F915F914F913F917F
:100140002F910F900FBE0F901F90189585B582606C
:1001500085BD84B5816884BD569A8FE787BD0895B3
:1001600080910B01813029F42F9A8091090187BD7C
:1001700008952F9817BC08951F920F920FB60F92F3
:1001800011242F933F934F935F936F937F938F939C
:100190009F93AF93BF93EF93FF93F89480911601D1
:1001A000813029F40E94F4021092160108C00E94C6
:1001B0008B02813021F40E94B0000E945C00789490
:1001C000FF91EF91BF91AF919F918F917F916F912F
:1001D0005F914F913F912F910F900FBE0F901F9005
:1001E0001895FF920F931F93CF93DF93279A0E9446
:1001F0003301589A78940E941C02E89A85E090E0B6
:100200000E943003809317010E94A60086E296E2C6
:10021000909389008093880080918100886080930A
:1002200081008091810085608093810080916F00C2
:10023000826080936F00FF24F39408E110E0CEE029
:10024000D0E04899FECF0E945702F0921601489BD9
:10025000FECF0FB6F894A895009360000FBEC09330
:1002600060007894EECF84B18D6284B92C9A2A9A7A
:1002700081E58CBD089512C0242F30E0215030401C
:10028000FC01E20FF31F50815EBD0DB407FEFDCFF0
:100290005EB5260F371FF90150834150442361F7A3
:1002A00008950AC0FC01E60FF11D319720812EBD93
:1002B0000DB407FEFDCF61506623A1F708958EBDF2
:1002C0000DB407FEFDCF8EB508952A980E945F01F8
:1002D0002A9A0895DF93CF930F92CDB7DEB72A986D
:1002E0008F71806269830E945F016981862F0E94FD
:1002F0005F012A9A0F90CF91DF9108950F931F937A
:10030000DF93CF930F92CDB7DEB78B012A988F7111
:1003100049830E945F01C801B80149810E943B01E5
:100320002A9A0F90CF91DF911F910F9108950F930B
:100330001F93DF93CF930F92CDB7DEB78B012A982F
:100340008F71806249830E945F01C8014981642FD7
:100350000E9451012A9A0F90CF91DF911F910F9126
:1003600008958FEF0E946501282F84FD05C081E06C
:1003700025FD03C080E0089581E00895CF93DF93C9
:10038000EC01289880E06EE00E946A0187E060E35B
:100390000E946A012A9881EE0E945F012A9A2A9897
:1003A00080EA0E945F01CE0166E00E9451012A9A14
:1003B000289A84E08A95F1F728980E94B101882351
:1003C000E1F3DF91CF9108950F931F93DF93CF93C4
:1003D00000D000D00F92CDB7DEB7289880E06EE055
:1003E0000E946A018E010F5F1F4FC80160E070E03C
:1003F00045E050E00E94200386E090E00E94300338
:10040000682F85E00E946A018AE0B80145E00E94F9
:10041000970180E1B80145E00E94970187E060E71D
:100420000E946A010F900F900F900F900F90CF9144
:10043000DF911F910F9108950F931F93DF93CF9337
:1004400000D000D00F92CDB7DEB7289880E06FE3E0
:100450000E946A018E010F5F1F4FC80160E070E0CB
:1004600045E050E00E94200386E090E00E943003C7
:10047000682F85E00E946A018AE0B80145E00E9489
:10048000970181E166E00E946A0187E060E70E94CF
:100490006A0182EE0E946501289A0F900F900F90DA
:1004A0000F900F90CF91DF911F910F910895DF93DF
:1004B000CF9300D000D00F92CDB7DEB7DE011196FA
:1004C000E0E0F1E085E001900D928150E1F728989D
:1004D0006FE30E946A0187E060E70E946A0185E09D
:1004E00062E00E946A018AE0BE016F5F7F4F45E0D3
:1004F0000E94970181E167E00E946A01289A82EEDA
:100500000E946501E89A0F900F900F900F900F9046
:10051000CF91DF9108952A9881E60E945F018CE0D7
:1005200091E0BC0146E00E943B012A9A87E060E727
:100530000E946A0180911701909111018917B1F40D
:1005400080910C0180930B0180910D018093090132
:1005500080910E0180930A0180910F018093080120
:10056000809110018093070181E0089594E6899FAE
:10057000C00111240197F1F70E94E4018CE091E0A1
:100580000E94BE010E941C0280E008950F931F93F9
:10059000CF93DF93EC0186E090E06E810E943803F8
:1005A00085E090E06D810E94380304E010E0C8010E
:1005B0006C810E943803C80101976B810E94380347
:1005C000C80102976A810E943803C80103976981B4
:1005D0000E943803C801049768810E943803DF91A4
:1005E000CF911F910F9108950F931F93DF93CF9396
:1005F000CDB7DEB72E970FB6F894DEBF0FBECDBFD6
:100600002A9881E60E945F01CE0108968E010F5F55
:100610001F4FB80147E00E943B012A9AC8010E947F
:10062000C60287E060E70E946A012E960FB6F89432
:10063000DEBF0FBECDBFCF91DF911F910F91089507
:10064000DC01CB01FC01F999FECF06C0F2BDE1BD92
:10065000F89A319600B40D9241505040B8F7089581
:10066000F999FECF92BD81BDF89A992780B508957A
:10067000262FF999FECF92BD81BDF89A019700B45B
:10068000021639F01FBA20BD0FB6F894FA9AF99AFB
:080690000FBE0895F894FFCF9E
:06069800E7E7E7E7E700D9
:00000001FF
