:100000000C9434000C94B9000C945A000C945A00CF
:100010000C945A000C945A000C945A000C945A00F8
:100020000C945A000C945A000C945A000C945C00E6
:100030000C945A000C945A000C945A000C945A00D8
:100040000C945A000C945A000C945A000C945A00C8
:100050000C945A000C945A000C945A000C945A00B8
:100060000C945A000C945A0011241FBECFEFD4E018
:10007000DEBFCDBF14BE88E10FB6F8948093600058
:10008000109260000FBE11E0A0E0B1E0E6E8F6E0FB
:1000900002C005900D92A630B107D9F711E0A6E095
:1000A000B1E001C01D92A831B107E1F70E94EA005A
:1000B0000C9441030C9400001F920F920FB60F9204
:1000C00011242F933F934F935F936F937F938F935D
:1000D0009F93AF93BF93EF93FF93F8940E94DD013A
:1000E00080910B0180930C018091090180930D0197
:1000F00080910A0180930E018091080180930F0185
:1001000080910601809310018F5F8093060180919A
:100110001701809311018CE091E00E94B7010E94C9
:1001200015027894FF91EF91BF91AF919F918F91BC
:100130007F916F915F914F913F912F910F900FBEE3
:100140000F901F90189585B5826085BD84B5816834
:1001500084BD569A8FE787BD089580910B01813049
:1001600029F42F9A8091090187BD08952F9817BC13
:1001700008951F920F920FB60F9211242F933F9361
:100180004F935F936F937F938F939F93AF93BF939F
:10019000EF93FF93F89480911601813029F40E9427
:1001A000EB021092160104C00E9484020E94AD006E
:1001B0007894FF91EF91BF91AF919F918F917F9133
:1001C0006F915F914F913F912F910F900FBE0F90C4
:1001D0001F901895FF920F931F93CF93DF93279A49
:1001E0000E942C01589A78940E941502E89A85E0A2
:1001F00090E00E942703809317010E94A30086E2EB
:1002000096E29093890080938800809181008860B5
:10021000809381008091810085608093810080912E
:100220006F00826080936F00FF24F39408E110E078
:10023000CEE0D0E04899FECF0E945002F092160125
:10024000489BFECF0FB6F894A895009360000FBEB0
:10025000C09360007894EECF84B18D6284B92C9AFB
:100260002A9A81E58CBD089512C0242F30E02150D8
:100270003040FC01E20FF31F50815EBD0DB407FE5C
:10028000FDCF5EB5260F371FF9015083415044233F
:1002900061F708950AC0FC01E60FF11D3197208136
:1002A0002EBD0DB407FEFDCF61506623A1F7089562
:1002B0008EBD0DB407FEFDCF8EB508952A980E941D
:1002C00058012A9A0895DF93CF930F92CDB7DEB7E6
:1002D0002A988F71806269830E9458016981862FF4
:1002E0000E9458012A9A0F90CF91DF9108950F93A1
:1002F0001F93DF93CF930F92CDB7DEB78B012A9870
:100300008F7149830E945801C801B80149810E9438
:1003100034012A9A0F90CF91DF911F910F91089588
:100320000F931F93DF93CF930F92CDB7DEB78B015F
:100330002A988F71806249830E945801C8014981BF
:10034000642F0E944A012A9A0F90CF91DF911F914A
:100350000F9108958FEF0E945E01282F84FD05C044
:1003600081E025FD03C080E0089581E00895CF93EA
:10037000DF93EC01289880E06EE00E94630187E043
:1003800060E30E9463012A9881EE0E9458012A9A34
:100390002A9880EA0E945801CE0166E00E944A0134
:1003A0002A9A289A84E08A95F1F728980E94AA014F
:1003B0008823E1F3DF91CF9108950F931F93DF938B
:1003C000CF9300D000D00F92CDB7DEB7289880E051
:1003D0006EE00E9463018E010F5F1F4FC80160E055
:1003E00070E045E050E00E94170386E090E00E9434
:1003F0002703682F85E00E9463018AE0B80145E089
:100400000E94900180E1B80145E00E94900187E0E0
:1004100060E70E9463010F900F900F900F900F9074
:10042000CF91DF911F910F9108950F931F93DF9349
:10043000CF9300D000D00F92CDB7DEB7289880E0E0
:100440006FE30E9463018E010F5F1F4FC80160E0E0
:1004500070E045E050E00E94170386E090E00E94C3
:100460002703682F85E00E9463018AE0B80145E018
:100470000E94900181E166E00E94630187E060E7ED
:100480000E94630182EE0E945E01289A0F900F90F5
:100490000F900F900F90CF91DF911F910F910895C2
:1004A000DF93CF9300D000D00F92CDB7DEB7DE013F
:1004B0001196E0E0F1E085E001900D928150E1F7C6
:1004C00028986FE30E94630187E060E70E94630160
:1004D00085E062E00E9463018AE0BE016F5F7F4FAA
:1004E00045E00E94900181E167E00E946301289A43
:1004F00082EE0E945E01E89A0F900F900F900F908D
:100500000F90CF91DF9108952A9881E60E945801BB
:100510008CE091E0BC0146E00E9434012A9A87E019
:1005200060E70E9463018091170190911101891782
:10053000A9F480910C0180930B0180910D018093AF
:10054000090180910E0180930A0180910F0180932F
:1005500008018091100180930701089594E6899F16
:10056000C00111240197F1F70E94DD018CE091E0B8
:100570000E94B7010E94150208950F931F93CF9315
:10058000DF93EC0186E090E06E810E942F0385E00E
:1005900090E06D810E942F0304E010E0C8016C819F
:1005A0000E942F03C80101976B810E942F03C8018D
:1005B00002976A810E942F03C801039769810E94F4
:1005C0002F03C801049768810E942F03DF91CF9108
:1005D0001F910F9108950F931F93DF93CF93CDB782
:1005E000DEB72E970FB6F894DEBF0FBECDBF2A98A8
:1005F00081E60E945801CE0108968E010F5F1F4FC1
:10060000B80147E00E9434012A9AC8010E94BD0245
:1006100087E060E70E9463012E960FB6F894DEBF74
:100620000FBECDBFCF91DF911F910F910895DC01D7
:10063000CB01FC01F999FECF06C0F2BDE1BDF89AED
:10064000319600B40D9241505040B8F70895F99991
:10065000FECF92BD81BDF89A992780B50895262FC7
:10066000F999FECF92BD81BDF89A019700B40216A8
:1006700039F01FBA20BD0FB6F894FA9AF99A0FBE56
:060680000895F894FFCF7D
:06068600E7E7E7E7E700EB
:00000001FF
