:100000000C9481000C94A9000C94A7000C94A700F8
:100010000C94A7000C94A7000C94DE000C94A7008D
:100020000C94A7000C94A7000C94A7000C94A700B4
:100030000C94A7000C94A7000C94A7000C94A700A4
:100040000C94A7000C94A7000C94A7000C94A70094
:100050000C94A7000C94A7000C94A7000C94A70084
:100060000C94A7000C94A70017030D030303F902D7
:10007000EF02E502DA02D002C502BA02AF02A30221
:1000800098028C02810275026A025E0252024602E6
:100090003B022F02230217020C020002F401E901C5
:1000A000DE01D201C701BC01B101A6019C01910191
:1000B00087017D01730169015F0156014D01430113
:1000C0003A0132012901210119011101090101013E
:1000D000FA00F300EC00E500DE00D800D100CB0010
:1000E000C500170320032A0332033B0344034C03D8
:1000F00054035C0363036B03720379037F0386037A
:100100008C0311241FBECFEFD4E0DEBFCDBF14BEE1
:1001100088E10FB6F89480936000109260000FBEE3
:1001200011E0A0E0B1E0E8EDF6E002C005900D922C
:10013000A630B107D9F711E0A6E0B1E001C01D92E9
:10014000A131B107E1F70E9406010C946A030C94F7
:1001500000001F920F920FB60F9211242F933F931E
:100160004F935F936F937F938F939F93AF93BF93BF
:10017000EF93FF93F8940E949702FF91EF91BF9144
:10018000AF919F918F917F916F915F914F913F912F
:100190002F910F900FBE0F901F9018950E94F402A0
:1001A000809306019093070180910A018F5F8093ED
:1001B0000A018091100180930B0108951F920F9204
:1001C0000FB60F9211242F933F934F935F936F932A
:1001D0007F938F939F93AF93BF93EF93FF930E946F
:1001E000CE0086E091E00E94DB01FF91EF91BF918C
:1001F000AF919F918F917F916F915F914F913F91BF
:100200002F910F900FBE0F901F901895FF920F9394
:100210001F93CF93DF9381E084B90E9450010E9425
:10022000C402589A21E630E088E190E00FB6F894D5
:10023000A895809360000FBE20936000789483B7E8
:10024000817F846083BF85E090E00E9450038093AB
:1002500010010E94050288E1F82E08E110E0CEE0CE
:10026000D0E0489915C00FB6F894F0926000109253
:1002700060000FBE0E943502489BFECF0FB6F89477
:10028000A895009360000FBEC09360007894E9CFFA
:1002900083B7816083BF889583B78E7F83BFE1CFAB
:1002A00084B18D6284B92C9A2A9A81E58CBD089517
:1002B00012C0242F30E021503040FC01E20FF31F28
:1002C00050815EBD0DB407FEFDCF5EB5260F371F12
:1002D000F90150834150442361F708950AC0FC019D
:1002E000E60FF11D319720812EBD0DB407FEFDCF25
:1002F00061506623A1F708958EBD0DB407FEFDCFB2
:100300008EB508952A980E947C012A9A0895DF9359
:10031000CF930F92CDB7DEB72A988F718062698331
:100320000E947C016981862F0E947C012A9A0F908D
:10033000CF91DF9108950F931F93DF93CF930F9287
:10034000CDB7DEB78B012A988F7149830E947C015B
:10035000C801B80149810E9458012A9A0F90CF9193
:10036000DF911F910F9108950F931F93DF93CF9308
:100370000F92CDB7DEB78B012A988F7180624983C7
:100380000E947C01C8014981642F0E946E012A9A53
:100390000F90CF91DF911F910F9108958FEF0E94E1
:1003A0008201282F84FD05C081E025FD03C080E087
:1003B000089581E00895CF93DF93EC01289880E0C1
:1003C0006EE00E94870187E060E30E9487012A981F
:1003D00081EE0E947C012A9A2A9880EA0E947C0180
:1003E000CE0166E00E946E012A9A289A84E08A95DE
:1003F000F1F728980E94CE018823E1F380E06CE0B9
:100400000E948701DF91CF9108950F931F93DF938F
:10041000CF9300D000D00F92CDB7DEB728988E01D1
:100420000F5F1F4FC80160E070E045E050E00E94A0
:10043000400386E090E00E945003682F85E00E9410
:1004400087018AE0B80145E00E94B40180E1B8016B
:1004500045E00E94B4010F900F900F900F900F9005
:10046000CF91DF911F910F910895DF93CF9300D02B
:1004700000D00F92CDB7DEB7DE011196E0E0F1E0DB
:1004800085E001900D928150E1F728986FE30E947A
:10049000870187E060E70E94870185E062E00E94B3
:1004A00087018AE0BE016F5F7F4F45E00E94B40183
:1004B00081E167E00E948701289A82EE0E94820112
:1004C000E89A0F900F900F900F900F90CF91DF91BF
:1004D00008950F931F93CF93DF93EC0186E090E094
:1004E0006E810E94580385E090E06D810E94580360
:1004F00004E010E0C8016C810E945803C801019714
:100500006B810E945803C80102976A810E945803B8
:10051000C801039769810E945803C8010497688144
:100520000E945803DF91CF911F910F9108950F936F
:100530001F93DF93CF93CDB7DEB72E970FB6F89406
:10054000DEBF0FBECDBF2A9881E60E947C01CE019E
:1005500008968E010F5F1F4FB80147E00E945801B7
:100560002A9AC8010E946902289887E060E70E94E1
:1005700087012E960FB6F894DEBF0FBECDBFCF9188
:10058000DF911F910F91089510927B00AAE7B0E0D0
:1005900085E88C93ECE7F0E080E4808383E08C9343
:1005A000808181608083389A0895409A80917A0092
:1005B000806880937A0080917A00806480937A00CA
:1005C00080917A0086FDFCCF90917800409179006F
:1005D000409880917A008F7780937A00342F20E0C2
:1005E000290F311DC90108951F930E94D50223E0F0
:1005F00088319207D4F020E030E0622F6F5F2F5FE8
:100600003F4FF901EE0FFF1FEE51FF4F45915491FF
:100610008417950749F18417950718F4162F115080
:1006200024C02F30310549F720C023E087319207DD
:10063000F1F020E030E0622F6F5F2F5F3F4FF90154
:10064000EE0FFF1FE859FF4F45915491841795070E
:1006500019F04817590718F4162F115003C02C33FE
:10066000310549F781E005C0162F80E002C081E026
:1006700010E0382F20E0210F311DC9011F9108958E
:10068000DC01CB01FC01F999FECF06C0F2BDE1BD52
:10069000F89A319600B40D9241505040B8F7089541
:1006A000F999FECF92BD81BDF89A992780B508953A
:1006B000262FF999FECF92BD81BDF89A019700B41B
:1006C000021639F01FBA20BD0FB6F894FA9AF99ABB
:0806D0000FBE0895F894FFCF5E
:0606D800E7E7E7E7E70099
:00000001FF
