:100000000C9481000C9499020C94A7000C94A70006
:100010000C94A7000C94A7000C94CE020C94A7009B
:100020000C94A7000C94A7000C94A7000C94A700B4
:100030000C94A7000C94A7000C94A7000C94A700A4
:100040000C94A7000C94A7000C94A7000C94A70094
:100050000C94A7000C94A7000C94A7000C94A70084
:100060000C94A7000C94A70017030D030303F902D7
:10007000EF02E502DA02D002C502BA02AF02A30221
:1000800098028C02810275026A025E0252024602E6
:100090003B022F02230217020C020002F401E901C5
:1000A000DE01D201C701BC01B101A6019C01910191
:1000B00087017D01730169015F0156014D01430113
:1000C0003A0132012901210119011101090101013E
:1000D000FA00F300EC00E500DE00D800D100CB0010
:1000E000C500170320032A0332033B0344034C03D8
:1000F00054035C0363036B03720379037F0386037A
:100100008C0311241FBECFEFD4E0DEBFCDBF14BEE1
:1001100088E10FB6F89480936000109260000FBEE3
:1001200011E0A0E0B1E0E8EDF6E002C005900D922C
:10013000A630B107D9F711E0A6E0B1E001C01D92E9
:10014000A131B107E1F70E94F6020C946A030C9406
:10015000000010927B00AAE7B0E085E88C93ECE702
:10016000F0E080E4808383E08C93808181608083F1
:10017000389A0895409A80917A00806880937A0036
:1001800080917A00806480937A0080917A0086FD65
:10019000FCCF9091780040917900409880917A004E
:1001A0008F7780937A00342F20E0290F311DC90109
:1001B00008951F930E94BA0023E088319207D4F07B
:1001C00020E030E0622F6F5F2F5F3F4FF901EE0FAD
:1001D000FF1FEE51FF4F459154918417950749F148
:1001E0008417950718F4162F115024C02F303105AD
:1001F00049F720C023E087319207F1F020E030E09A
:10020000622F6F5F2F5F3F4FF901EE0FFF1FE8591D
:10021000FF4F459154918417950719F048175907D6
:1002200018F4162F115003C02C33310549F781E023
:1002300005C0162F80E002C081E010E0382F20E0DA
:10024000210F311DC9011F91089584B18D6284B9B8
:100250002C9A2A9A81E58CBD089512C0242F30E093
:1002600021503040FC01E20FF31F50815EBD0DB400
:1002700007FEFDCF5EB5260F371FF90150834150B1
:10028000442361F708950AC0FC01E60FF11D319780
:1002900020812EBD0DB407FEFDCF61506623A1F76E
:1002A00008958EBD0DB407FEFDCF8EB508952A9832
:1002B0000E9451012A9A0895DF93CF930F92CDB7F0
:1002C000DEB72A988F71806269830E94510169812B
:1002D000862F0E9451012A9A0F90CF91DF910895A5
:1002E0000F931F93DF93CF930F92CDB7DEB78B01A0
:1002F0002A988F7149830E945101C801B801498130
:100300000E942D012A9A0F90CF91DF911F910F919A
:1003100008950F931F93DF93CF930F92CDB7DEB75E
:100320008B012A988F71806249830E945101C80114
:100330004981642F0E9443012A9A0F90CF91DF9147
:100340001F910F9108958FEF0E945701282F84FD70
:1003500005C081E025FD03C080E0089581E0089597
:10036000CF93DF93EC01289880E06EE00E945C015F
:1003700087E060E30E945C012A9881EE0E945101AF
:100380002A9A2A9880EA0E945101CE0166E00E94D2
:1003900043012A9A289A84E08A95F1F728980E94C6
:1003A000A3018823E1F380E06CE00E945C01DF910F
:1003B000CF9108950F931F93DF93CF9300D000D078
:1003C0000F92CDB7DEB728988E010F5F1F4FC8017F
:1003D00060E070E045E050E00E94400386E090E07D
:1003E0000E945003682F85E00E945C018AE0B801FA
:1003F00045E00E94890180E1B80145E00E94890141
:100400000F900F900F900F900F90CF91DF911F9151
:100410000F910895DF93CF9300D000D00F92CDB706
:10042000DEB7DE011196E0E0F1E085E001900D928B
:100430008150E1F728986FE30E945C0187E060E754
:100440000E945C0185E062E00E945C018AE0BE01DE
:100450006F5F7F4F45E00E94890181E167E00E9464
:100460005C01289A82EE0E945701E89A0F900F9043
:100470000F900F900F90CF91DF9108950F931F93DE
:10048000CF93DF93EC0186E090E06E810E945803E9
:1004900085E090E06D810E94580304E010E0C801FF
:1004A0006C810E945803C80101976B810E94580318
:1004B000C80102976A810E945803C80103976981A5
:1004C0000E945803C801049768810E945803DF9175
:1004D000CF911F910F9108950F931F93DF93CF93A7
:1004E000CDB7DEB72E970FB6F894DEBF0FBECDBFE7
:1004F0002A9881E60E945101CE0108968E010F5F75
:100500001F4FB80147E00E942D012A9AC8010E949E
:100510003E02289887E060E70E945C012E960FB6A5
:10052000F894DEBF0FBECDBFCF91DF911F910F9129
:1005300008951F920F920FB60F9211242F933F939D
:100540004F935F936F937F938F939F93AF93BF93DB
:10055000EF93FF93F8940E946C02FF91EF91BF918B
:10056000AF919F918F917F916F915F914F913F914B
:100570002F910F900FBE0F901F9018950E94D900D9
:10058000809306019093070180910A018F5F809309
:100590000A018091100180930B0108951F920F9220
:1005A0000FB60F9211242F933F934F935F936F9346
:1005B0007F938F939F93AF93BF93EF93FF930E948B
:1005C000BE0286E091E00E94B001FF91EF91BF91E1
:1005D000AF919F918F917F916F915F914F913F91DB
:1005E0002F910F900FBE0F901F901895FF920F93B1
:1005F0001F93CF93DF9381E084B90E9425010E946D
:10060000A900589A21E630E088E190E00FB6F8940E
:10061000A895809360000FBE20936000789483B704
:10062000817F846083BF85E090E00E9450038093C7
:1006300010010E94DA0188E1F82E08E110E0CEE016
:10064000D0E0489915C00FB6F894F092600010926F
:1006500060000FBE0E940A02489BFECF0FB6F894BE
:10066000A895009360000FBEC09360007894E9CF16
:1006700083B7816083BF889583B78E7F83BFE1CFC7
:10068000DC01CB01FC01F999FECF06C0F2BDE1BD52
:10069000F89A319600B40D9241505040B8F7089541
:1006A000F999FECF92BD81BDF89A992780B508953A
:1006B000262FF999FECF92BD81BDF89A019700B41B
:1006C000021639F01FBA20BD0FB6F894FA9AF99ABB
:0806D0000FBE0895F894FFCF5E
:0606D800E7E7E7E7E70099
:00000001FF
