:1000000088C100000CC70000A0C100009EC1000014
:100010009CC100009AC1000098C1000096C1000078
:1000200094C1000092C100000C94F20A0C94BB0B26
:100030008CC100008AC1000088C1000086C1000098
:1000400084C1000082C1000080C100007EC10000A8
:100050007CC100007BC1000078C1000076C10000B7
:1000600074C1000072C1000070C100006EC10000C8
:100070006CC100006AC1000068C1000066C10000D8
:1000800064C1000062C1000060C100005EC10000E8
:100090005CC100005AC1000058C1000056C10000F8
:1000A00054C1000052C1000050C1000073746F7051
:1000B0002009090973746F70206465627567206395
:1000C0006F6E74696E7565206F75747075740D0A46
:1000D0007374617274200909097374617274206405
:1000E0006562756720636F6E74696E7565206F75E4
:1000F000747075740D0A6366675F63682009090987
:100100007B302D38337D0D0A6366675F686F6D65E0
:100110005F6164647209097B302D3235357D2C7B3B
:10012000302D3235357D2C7B302D3235357D2C7B95
:10013000302D3235357D0D0A656E61626C655F6EFE
:100140006F64652009097B6E6F6465237D207B30B9
:100150002D317D0D0A6366675F6E6F64655F616454
:1001600064722009097B6E6F6465237D207B302DCE
:100170003235357D0D0A6366675F6E6F64655F6E4D
:10018000616D652009097B6E6F6465237D205B319D
:10019000305D0D0A6366675F6E6F64655F747970CA
:1001A000652009097B302D357D207B302D3235359A
:1001B0007D0D0A7072696E745F636667200909506D
:1001C00072696E742074686520636F6E6669677506
:1001D000726174696F6E204A534F4E0D0A726573D7
:1001E0006574200909097265736574206D61737403
:1001F000657220636F6E66696775726174696F6E90
:100200000D0A73656E645F6366672009097B6E6F14
:100210006465237D0D0A67657420090909507269B8
:100220006E74204A534F4E20616374697665206E68
:100230006F6465730D0A73656E64200909097B6E2E
:100240006F6465237D2C207B302D3235357D2C204D
:100250007B302D3235357D2C207B302D3235357D70
:100260002C207B302D3235357D0D0A68656C702071
:100270000909097072696E74207468697320686571
:100280006C700D0A001201100102000008EB03441B
:100290002000000102DC0109023E00020100C03220
:1002A00009040000010202010005240010010424D9
:1002B00002060524060001070582030800FF090461
:1002C0000100020A000000070504021000050705EE
:1002D000830210000504030904180344006500614B
:1002E000006E002000430061006D00650072006137
:1002F0000000001C034C0055004600410020004354
:1003000000440043002000440065006D006F0000C1
:10031000000011241FBECFEFDAE0DEBFCDBF13E037
:10032000A0E0B1E0EAEAFBE202C005900D92A23D36
:10033000B107D9F715E0A2EDB3E001C01D92AB32D1
:10034000B107E1F7BED50C94D3155ACE1F920F9288
:100350000FB60F9211242F933F934F935F936F9398
:100360007F938F939F93AF93BF93EF93FF930E94DD
:10037000240EFF91EF91BF91AF919F918F917F914B
:100380006F915F914F913F912F910F900FBE0F9002
:100390001F9018958F929F92AF92BF92CF92DF924B
:1003A000EF92FF920F931F93DF93CF9300D000D073
:1003B0000F92CDB7DEB780E090E00E94F114082FD5
:1003C000CE01019661E070E045E050E00E94E1144A
:1003D0008DB79EB70E970FB6F8949EBF0FBE8DBF18
:1003E000EDB7FEB7319633EDC32E33E0D32EADB764
:1003F000BEB71296DC92CE92119720E031E03383A3
:100400002283048315828981868317828A8180876B
:1004100011868B81828713868C81848715860E9442
:100420008F1226E3E22E24E0F22E8DB79EB70E96B1
:100430000FB6F8949EBF0FBE8DBF00E010E04601DE
:100440009EE2C92E91E0D92E83E1A82EB12CADB742
:10045000BEB750970FB6F894BEBF0FBEADBFEDB795
:10046000FEB7319611968C92119712969C92D38278
:10047000C28215830483D70111968C9111978683CC
:1004800017828C918087118612968C9112978287A1
:1004900013860A9DC0010B9D900D1A9D900D11248D
:1004A000875C9B4F9587848752968C9186871786A9
:1004B0000E948F120F5F1F4F83E190E0E80EF91E3C
:1004C000ADB7BEB750960FB6F894BEBF0FBEADBF66
:1004D0000B30110509F0BBCF8DB79EB740970FB613
:1004E000F8949EBF0FBE8DBFEDB7FEB73196ADB786
:1004F000BEB711968C92119712969C928CE791E060
:1005000093838283158304838091080586831782F1
:10051000809107058087118680910905828713865F
:100520008AE095E0958784878091190586871786EC
:100530000E948F128DB79EB740960FB6F8949EBF5B
:100540000FBE8DBF89EC91E0B4010E94E6120F90BE
:100550000F900F900F900F90CF91DF911F910F91FF
:10056000FF90EF90DF90CF90BF90AF909F908F90D3
:10057000089580E090E060E00E941A15E6E3F4E060
:1005800080E01082818312821382128A8F5F7396B9
:100590008C30B9F7CAC676D5ACE2B4E080913104AC
:1005A00090E0FC01EE0FFF1FE80FF91FEE0FFF1F99
:1005B000EC51FC4F8D91819384E0A233B807D1F7C1
:1005C00008952F923F924F925F926F927F928F92F7
:1005D0009F92AF92BF92CF92DF92EF92FF920F93D2
:1005E0001F93DF93CF9300D00F92CDB7DEB78DEC82
:1005F00091E063ED73E00E94E61206E3802E04E0D2
:10060000902E14EEA12E13E0B12E00E010E077241E
:10061000B3EDEB2EB3E0FB2EAEEE4A2EA1E05A2E48
:10062000FBEF2F2EF1E03F2EC701E982692ED401A6
:100630008C91813009F0B4C07720F9F400D000D05B
:1006400000D0EDB7FEB73196ADB7BEB71296FC92AB
:10065000EE92119782ED91E0938382831583048358
:100660000E948F12ADB7BEB716960FB6F894BEBFF4
:100670000FBEADBF772473941CC000D000D000D053
:10068000EDB7FEB73196ADB7BEB71296FC92EE92BB
:1006900011978EED91E093838283158304830E94EA
:1006A0008F12ADB7BEB716960FB6F894BEBF0FBE89
:1006B000ADBF00D000D000D0EDB7FEB73196ADB7DA
:1006C000BEB71296FC92EE92119753824282D501E8
:1006D00014968C91848315820E948F129801220FA8
:1006E000331F200F311F220F331F28513C4FEDB70E
:1006F000FEB736960FB6F894FEBF0FBEEDBF63E0AF
:10070000C62ED12C8DB79EB708970FB6F8949EBF12
:100710000FBE8DBFEDB7FEB73196ADB7BEB712961F
:10072000FC92EE92119733822282D582C482D90143
:100730008E919D0186831782AA833B830E948F122C
:100740000894C108D108EDB7FEB738960FB6F894F3
:10075000FEBF0FBEEDBF2A813B81C114D10491F6CB
:1007600000D000D000D0EDB7FEB731968981ADB78B
:10077000BEB711968C93119712966C92A9E0B2E0D5
:10078000B383A283D5018C91848315820E948F123A
:10079000EDB7FEB736960FB6F894FEBF0FBEEDBFAD
:1007A0000F5F1F4F83E190E0880E991EA6E0B0E036
:1007B000AA0EBB1E0C30110509F039CF86E192E07C
:1007C00063ED73E00E94E6120F900F900F90CF91AF
:1007D000DF911F910F91FF90EF90DF90CF90BF902E
:1007E000AF909F908F907F906F905F904F903F90D1
:1007F0002F900895AF92BF92CF92DF92EF92FF9227
:100800000F931F93DF93CF93CDB7DEB72F970FB61C
:10081000F894DEBF0FBECDBFDE011196E9EAF3E02A
:1008200023E001900D922150E1F77E010894E11C34
:10083000F11CB7010E9437128C016DE172E00E9439
:100840004312009729F41092D20382E292E00CC086
:10085000C8016BE272E00E944312009751F481E0FC
:100860008093D20381E392E063ED73E00E94E6128D
:10087000C5C2C8016BE372E00E944312009779F58C
:1008800080E090E0B7010E943712009709F4B6C2E9
:100890000E941A12082F8150833508F0AFC280E001
:1008A00090E0602F0E941A159BD400D000D000D099
:1008B000EDB7FEB7319623ED33E0ADB7BEB7129674
:1008C0003C932E93119722E432E0338322830483F6
:1008D00015820E948F12EDB7FEB736961FC1C80170
:1008E00066E572E00E944312009709F050C000E0F4
:1008F000DE2CEF2C0BC00E941A12682F202F30E044
:10090000C9018F5F9F4F0E941A150F5F80E090E032
:100910006D2D7E2D0E943712009769F761D484E611
:1009200092E063ED73E00E94E61200E010E023ED38
:10093000E22E23E0F22E93E7C92E92E0D92EC801D1
:100940008F5F9F4F0E94F11400D000D000D0EDB710
:10095000FEB73196ADB7BEB71296FC92EE921197E4
:10096000D382C282848315820E948F120F5F1F4F31
:10097000EDB7FEB736960FB6F894FEBF0FBEEDBFCB
:1009800005301105E1F687E792E0B7016FCFC801A6
:100990006BE772E00E944312009771F580E090E0EF
:1009A000B7010E943712009709F428C20E941A1258
:1009B0008C3008F023C2082F10E083E190E0089FFC
:1009C000F001099FF00D189FF00D1124EA5CFB4F18
:1009D00081E08083AAD400D000D000D0EDB7FEB76C
:1009E000319683ED93E0ADB7BEB712969C938E938C
:1009F000119782E892E033C0C80165E972E00E9475
:100A000043120097B1F580E090E0B7010E943712E1
:100A1000009709F4F3C10E941A128C3008F0EEC15D
:100A2000082F10E083E190E0089FF001099FF00D8E
:100A3000189FF00D1124EA5CFB4F108276D400D091
:100A400000D000D0EDB7FEB7319683ED93E0ADB79F
:100A5000BEB712969C938E9311978DE992E0938383
:100A60008283158304830E948F12EDB7FEB73696FA
:100A7000F8C0C80161EB72E00E944312009709F0D0
:100A800053C080E090E0B7010E943712009709F44C
:100A9000B5C10E941A12082F8C3008F0AFC180E057
:100AA00090E0BE016F5F7F4F0E943712BC0100973C
:100AB00009F4A4C1E02EFF2483E190E0E89E8001C8
:100AC000E99E100DF89E100D1124075C1B4FC80104
:100AD0004FE050E00E944C1228D42DB73EB728506A
:100AE00030400FB6F8943EBF0FBE2DBFEDB7FEB736
:100AF000319683ED93E0ADB7BEB712969C938E937B
:100B000011978FEB92E093838283F582E4821783BF
:100B100006830E948F12EDB7FEB738960FB6F89491
:100B2000FEBF0FBEEDBF6AC1C80163ED72E00E9457
:100B30004312009709F040C080E090E0B7010E94A6
:100B40003712009709F45AC10E941A12082F8C30EC
:100B500008F054C180E090E0BE016F5F7F4F0E94BB
:100B60003712009709F44AC10E941A1210E023E1DB
:100B700030E0029FF001039FF00D129FF00D112451
:100B8000EA5CFB4F82838F87D0D32DB73EB72850C6
:100B900030400FB6F8943EBF0FBE2DBFEDB7FEB785
:100BA000319623ED33E0ADB7BEB712963C932E934A
:100BB000119721EE32E049C0C80167EF72E00E9450
:100BC0004312009709F053C080E090E08E010F5F60
:100BD0001F4FB8010E943712009709F40FC10E94FD
:100BE0001A12E82E8C3008F009C180E090E0B801BC
:100BF0000E943712009709F401C10E941A120E2DAB
:100C000010E023E130E0029FF001039FF00D129FFE
:100C1000F00D1124EA5CFB4F828B8F8786D32DB7B2
:100C20003EB7285030400FB6F8943EBF0FBE2DBFE0
:100C3000EDB7FEB7319623ED33E0ADB7BEB71296F0
:100C40003C932E93119725E033E033832283158361
:100C500004838F85868317820E948F12EDB7FEB7BB
:100C600038960FB6F894FEBF0FBEEDBFACC0C801FA
:100C700068E173E00E944312009711F48BDBBEC061
:100C8000C80162E273E00E944312009711F471DC24
:100C9000B5C0C80168E273E00E944312009711F4E6
:100CA00090DCACC0C8016CE273E00E944312009774
:100CB00009F063C080E090E07E010894E11CF11C23
:100CC000B7010E943712009709F498C00E941A12C7
:100CD000C82E8C3008F092C019861A861B861C8696
:100CE0001D861E868E01075F1F4F8DE0A82EB12C3A
:100CF000AC0EBD1EDE2CEF2C05C00E941A12D801CE
:100D00008D938D0180E090E06D2D7E2D0E94371235
:100D1000009719F00A151B0581F7CE868091E30331
:100D20008D878F5F8093E3038E010C5F1F4FC80197
:100D300061E070E045E050E00E94E114DD2483E1D1
:100D400090E0C89EF001C99EF00DD89EF00D1124D0
:100D5000EA5CFB4F8281888780E090E00E94F1147A
:100D6000B801A5D1CE010996BED1813019F481E335
:100D700093E025C08AE493E022C0C8016DE573E0EA
:100D80000E944312009709F580E090E0BE016F5F7A
:100D90007F4F0E943712009789F10E941A12082F84
:100DA0008C3060F582E06CEA73E081D1802FBBD19A
:100DB000813019F486E693E002C088E893E063EDA1
:100DC00073E00E94E6120CD219C0C80164EA73E015
:100DD0000E944312009791F400D000D083ED93E07D
:100DE000EDB7FEB7928381838CEA90E0948383838E
:100DF0000E94A0120F900F900F900F902F960FB699
:100E0000F894DEBF0FBECDBFCF91DF911F910F9140
:100E1000FF90EF90DF90CF90BF90AF9008951F921A
:100E20000F920FB60F9211242F933F934F935F931E
:100E30006F937F938F939F93AF93BF93EF93FF93A2
:100E4000AADB8091D203882309F0BBDB8EB190E44A
:100E500089278EB9FF91EF91BF91AF919F918F91AB
:100E60007F916F915F914F913F912F910F900FBEA6
:100E70000F901F90189584B7877F84BF88E10FB6C5
:100E8000F89480936000109260000FBE90E880E0BC
:100E90000FB6F89490936100809361000FBE85B502
:100EA000886085BD85B5856085BD84B5826084BD5B
:100EB000EEE6F0E080818260808397BD7BD36E9AFE
:100EC0000895EF92FF920F931F93CF93DF93D3DF99
:100ED00065D086D181EB93E063ED73E00E940F1043
:100EE000789410E0C0E0D0E040C081EB93E00E9435
:100EF000C80F082F883011F08F3751F48FE790E03A
:100F000063ED73E00E94BA121230B8F0125016C0AE
:100F1000CE0161E070E00E945611E82EE7017E01EB
:100F2000F92EE701F701E10FF11D0083802F90E01A
:100F300063ED73E00E94BA1201C01FEFFE01E10FE2
:100F4000F11D80818A3011F08D3071F410828AE0B9
:100F500090E063ED73E00E94BA12CE014BDCCE014B
:100F60000E94BD1010E007C01F5F81EB93E0DBD74C
:100F7000009709F0BACF81EB93E0C5D7F6CF08957B
:100F8000089581EB93E029C781EB93E079C6FC01DA
:100F9000208920FD02C01092D203089584B1876198
:100FA00084B92B9A289A83E58CBD089512C0242F0A
:100FB00030E021503040FC01E20FF31F50815EBD54
:100FC0000DB407FEFDCF5EB5260F371FF901508324
:100FD0004150442361F708950AC0FC01E60FF11D5A
:100FE000319720812EBD0DB407FEFDCF61506623E1
:100FF000A1F708958EBD0DB407FEFDCF8EB50895FF
:101000002898F8DF289A0895DF93CF930F92CDB7F1
:10101000DEB728988F7180626983ECDF6981862F43
:10102000E9DF289A0F90CF91DF9108950F931F93D6
:10103000DF93CF930F92CDB7DEB78B0128988F71D6
:1010400080624983D7DFC8014981642FC5DF289AB0
:101050000F90CF91DF911F910F91089528988FEFF6
:10106000C9DF289A85FF05C087E060E2CDDF81E017
:10107000089584FF05C087E060E1C6DF82E008953F
:1010800080E008951F932C98289881E6B3DF182FED
:101090006CE274E0CB0146E089DF289A87E060E4E7
:1010A000B3DF2C9A812F869587701F910895CF9377
:1010B000DF93982FEB01E8982C9885E0692FA4DF47
:1010C0008AE0BE0145E0B2DF80E1BE0145E0AEDF6F
:1010D00082E061E099DF81EE93DF80E06EE794DFEC
:1010E000DF91CF9108951F93CF93DF93EC012C985C
:1010F000289880EA7FDFCE01BE0146E057DF289ABC
:101100002C9A8AE68A95F1F700C02C9887E060E374
:101110007BDFA4DF882319F41F5F1233D0F3DF9144
:10112000CF911F9108951F93DF93CF9300D000D0EC
:101130000F92CDB7DEB7182FCE01019661E070E0B7
:1011400045E050E00E94E114898180932C048A815B
:1011500080932D048B8180932E048C8180932F04A7
:10116000812F90E023E130E0829FF001839FF00D1A
:10117000929FF00D1124EA5CFB4F82818093300432
:1011800081818093310480E090E00E94F11480938B
:101190003204289880EA2EDF8CE294E0BC0147E01C
:1011A00005DF289A2C9A8AE68A95F1F700C02C98D8
:1011B00010E054DF882319F41F5F1233D1F70F902A
:1011C0000F900F900F900F90CF91DF911F91089586
:1011D00086E394E065E070E044EE50E00C94E114A6
:1011E0000F931F93DF93CF9300D000D00F92CDB712
:1011F000DEB72C98EDDF80E090E00E94F114682FBC
:1012000085E002DF8E010F5F1F4FC80161E070E0D3
:1012100045E050E00E94E11480913604813061F491
:10122000809138048D838AE0B80145E0FFDE81E1DA
:1012300066E0EADE01E001C000E08091490481300F
:1012400071F480914B048D838BE0BE016F5F7F4F03
:1012500045E0ECDE82E166E0D7DE026001C00D7F92
:1012600080915C04813079F48BE0BE016F5F7F4F29
:1012700045E0DCDE8CE060915E04C6DE83E166E082
:10128000C3DE046001C00B7F80916F04813079F46C
:101290008BE0BE016F5F7F4F45E0C8DE8DE060915F
:1012A0007104B2DE84E166E0AFDE086001C0077F52
:1012B00080918204813079F48BE0BE016F5F7F4FB3
:1012C00045E0B4DE8EE0609184049EDE85E166E058
:1012D0009BDE006101C00F7E80919504813081F416
:1012E0008BE0BE016F5F7F4F45E0A0DE8FE0609135
:1012F00097048ADE86E166E087DE602F606202C0C6
:10130000602F6F7D82E080DE82EE7ADE80E06FE328
:101310007BDE2C9AE89A0F900F900F900F900F9011
:10132000CF91DF911F910F91089586E394E065E0DE
:1013300070E044EE50E00C94F914923029F09330B0
:1013400041F09130E9F417C02EE330E0E7E9F2E034
:101350001BC0813041F0813018F0823089F406C022
:10136000E5EDF2E005C0E9EDF2E002C0E3EFF2E006
:10137000249130E009C022E130E0E5E8F2E004C069
:1013800020E030E0E0E0F0E0DA011196FC93EE932B
:10139000C9010895982F2CC0292F2F702093E900A0
:1013A000981739F07091EC002091ED005091F00009
:1013B00003C0242F762F50E021FF19C03091EB009D
:1013C0003E7F3093EB003091ED003D7F3093ED0098
:1013D0003091EB0031603093EB007093EC00209380
:1013E000ED005093F0002091EE0027FF08C09F5FB2
:1013F000973090F28F708093E90081E0089580E04B
:101400000895EF92FF920F931F93CF93DF93162FC0
:10141000E82EE7017E01F92EE70100E02AC098815D
:10142000992329F16B81E981FA812C81892F8F70B1
:10143000873018F56295660F660F607C991F9927B3
:10144000991F692B223010F096E001C092E028E04D
:1014500030E040E003C04F5F220F331F2E173F07DD
:10146000D0F34295407F492B95DF882331F00F5F01
:1014700025960117A0F281E001C080E0DF91CF91B5
:101480001F910F91FF90EF90089580911F0587FFA6
:1014900013C004C080911E058823B9F08091E80034
:1014A00082FFF8CF8091E8008B778093E800089561
:1014B00080911E05882349F08091E80080FFF8CFD5
:1014C0008091E8008E778093E80008958091E40091
:1014D0009091E50044E62091EC0020FF26C0209189
:1014E000E80020FD16C020911E052223A1F0253022
:1014F000A1F02091EB0025FD12C02091E400309175
:10150000E5002817390739F3442359F04150C90140
:10151000E2CF80E0089582E0089583E0089581E0BD
:10152000089584E0089580E008952091E80022FF66
:10153000DACFF9CF0F931F93CF93DF9346D04DD0DF
:10154000C8EDD0E088818F77888388818068888320
:1015500088818F7D888319BC10921E0510921A0510
:1015600010921C0510921B0500EE10E0F80180811E
:101570008B7F808388818160888380E060E042E0A7
:1015800009DFE1EEF0E080818E7F8083E2EEF0E023
:10159000808181608083808188608083F801808180
:1015A0008E7F8083888180618883DF91CF911F91B6
:1015B0000F910895E7EDF0E080818160808384E001
:1015C00082BF81E080931D05B5CFE8EDF0E080811A
:1015D0008E7F80831092E20008951092DA001092BC
:1015E000E10008951F920F920FB60F9211242F93CE
:1015F0003F934F935F936F937F938F939F93AF939B
:10160000BF93EF93FF938091E10082FF0AC0809126
:10161000E20082FF06C08091E1008B7F8093E100B1
:1016200012D38091DA0080FF1DC08091D80080FF26
:1016300019C08091DA008E7F8093DA008091D90002
:1016400080FF0CC080E189BD82E189BD09B400FE44
:10165000FDCF81E080931E0592DC04C019BC10927E
:101660001E058EDC8091E10080FF18C08091E200B1
:1016700080FF14C08091E2008E7F8093E200809111
:10168000E20080618093E2008091D80080628093C4
:10169000D80019BC85E080931E05D5D28091E10069
:1016A00084FF2DC08091E20084FF29C080E189BDC4
:1016B00082E189BD09B400FEFDCF8091D8008F7D05
:1016C0008093D8008091E1008F7E8093E10080912B
:1016D000E2008F7E8093E2008091E200816080933F
:1016E000E20080911A05882321F48091E30087FFAE
:1016F00002C084E001C081E080931E05A4D28091E5
:10170000E10083FF27C08091E20083FF23C0809126
:10171000E100877F8093E10082E080931E051092B4
:101720001A058091E1008E7F8093E1008091E200B4
:101730008E7F8093E2008091E20080618093E200DE
:1017400080E060E042E026DE8091F00088608093D7
:10175000F00079D2FF91EF91BF91AF919F918F915E
:101760007F916F915F914F913F912F910F900FBE9D
:101770000F901F9018951F920F920FB60F92112481
:101780001F932F933F934F935F936F937F938F9309
:101790009F93AF93BF93EF93FF931091E9001F7056
:1017A0008091EC001092E9008091F000877F809397
:1017B000F0007894E2D01092E9008091F000886007
:1017C0008093F0001093E900FF91EF91BF91AF91EA
:1017D0009F918F917F916F915F914F913F912F9149
:1017E0001F910F900FBE0F901F901895482F592FE3
:1017F000FA0180912505909126058617970718F420
:10180000BC0140E03CC061157105D9F78091E8004A
:101810008E778093E800F5CF80911E05882309F428
:1018200044C08530F1F18091E80083FD3CC0809197
:10183000E80082FD30C08091E80080FF20C09091D8
:10184000F3008091F200392F20E090E0822B932B5F
:1018500006C041914093F1006150704001966115BE
:10186000710519F088309105A0F341E088309105A9
:1018700009F040E08091E8008E778093E8006115E0
:10188000710551F6442341F606C080911E05882358
:1018900061F0853061F08091E80082FFF6CF80E052
:1018A000089583E0089581E0089582E0089583E03B
:1018B0000895E82FF92F8091250590912605861728
:1018C000970718F4BC0140E03EC061157105D9F7D7
:1018D0008091E8008E778093E800F5CF80911E0517
:1018E000882309F446C0853009F43FC08091E800A0
:1018F00083FD3DC08091E80082FD31C08091E80009
:1019000080FF21C09091F3008091F200392F20E0F8
:1019100090E0822B932B07C044914093F1003196C5
:101920006150704001966115710519F0883091057C
:1019300098F341E08830910509F040E08091E8009B
:101940008E778093E8006115710541F6442331F6E6
:1019500006C080911E05882361F0853061F080917A
:10196000E80082FFF6CF80E0089583E0089581E0EB
:10197000089582E0089583E008950F931F93DF9305
:10198000CF93CDB7DEB7AC970FB6F894DEBF0FBEDE
:10199000CDBFEFE1F5E08091F100819325E0E732E2
:1019A000F207C9F7F1DA8091E80083FF33C1809133
:1019B0001F0520912005253009F484C0263040F40D
:1019C0002130A1F1213070F0233009F023C12EC065
:1019D000283009F4F1C0293009F400C1263009F09B
:1019E00019C194C0803821F0823809F013C108C0B1
:1019F00080911B0590911C05992371F082600CC0A9
:101A0000809123058F708093E9009091EB0081E035
:101A100095FF80E01092E9009091E800977F909305
:101A2000E8008093F1001092F100D1C0882319F0F2
:101A3000823009F0EFC090E08F719070009729F02C
:101A40008230910509F0E6C00BC0809121058130FC
:101A500009F0E0C0233009F080E080931C052CC021
:101A600080912105882341F5209123052F7009F4E9
:101A7000D1C02093E9008091EB0080FF1DC08091D0
:101A80002005833021F48091EB00806213C08091A7
:101A9000EB0080618093EB0081E090E002C0880F52
:101AA000991F2A95E2F78093EA001092EA0080914C
:101AB000EB0088608093EB001092E9008091E800D1
:101AC000877F88C0882309F0A5C0109121051F7762
:101AD0000FB7F8948091E800877F8093E800D5DC09
:101AE0008091E80080FFFCCF8091E3008078812B1B
:101AF0008093E30080688093E300112311F083E07A
:101B000001C082E080931E050FBF84C080588230E0
:101B100008F080C0809121059091220523E08C3D42
:101B2000920791F583E08C838AE28B835FB7F89408
:101B3000DE01159680E090E04EE061E2E42FF0E0F7
:101B400060935700E49180FF03C0E295EF704F5F10
:101B5000EF702E2F30E0EA3018F0295C3F4F02C0C2
:101B6000205D3F4F2D933D9301968431910531F7D0
:101B70005FBF8091E800877F8093E800CE010396E5
:101B80006AE270E033DE12C060912305AE014F5F60
:101B90005F4FD3DBBC01009709F43CC08091E800A3
:101BA000877F8093E80089819A8183DE8091E800B5
:101BB0008B778093E8002EC0803861F58091E80033
:101BC000877F8093E80080911A058093F1008091CF
:101BD000E8008E778093E80058DC1CC08823D1F49D
:101BE000909121059230B0F48091E800877F809336
:101BF000E80090931A0549DC80911A05882321F4A6
:101C00008091E30087FF02C084E001C081E08093FF
:101C10001E05B7D98091E80083FF0AC08091EB00D0
:101C200080628093EB008091E800877F8093E800DA
:101C3000AC960FB6F894DEBF0FBECDBFCF91DF914B
:101C40001F910F91089508951F9380911E05882379
:101C5000A9F08091E9008F709091EC0090FF02C094
:101C600010E801C010E0182B1092E9008091E80004
:101C700083FF01C082DE1F701093E9001F91089559
:101C8000CF93DF93EC018091E80083FFA3C08881AC
:101C900090E020912305309124052817390709F099
:101CA00099C080912005813269F0823220F480321F
:101CB00009F090C03CC0823209F46BC0833209F055
:101CC00089C07AC080911F05813A09F083C0809154
:101CD000E800877F8093E8008091E80080FFFCCFD8
:101CE0008C899D89AE89BF898093F100292F3A2F75
:101CF0004B2F55272093F1009D0144275527209312
:101D0000F1008B2F9927AA27BB278093F100888D9C
:101D10008093F100898D8093F1008A8D8093F1008A
:101D20008091E8008E778093E800AFDB53C080910C
:101D30001F05813209F04EC08091E800877F8093B3
:101D4000E80005C080911E05882309F443C08091F6
:101D5000E80082FFF7CF3091F1002091F1009091DF
:101D6000F1008091F1003C8B2D8B9E8B8F8B8091AD
:101D7000F100888F8091F100898F8091F1008A8F26
:101D80008091E8008B778093E8007FDBCE015AD109
:101D900021C080911F058132E9F48091E800877F9E
:101DA0008093E80072DB8091210590912205998B48
:101DB000888BCE01ECD80EC080911F05813251F482
:101DC0008091E800877F8093E8005FDBCE0160911F
:101DD000210538D1DF91CF910895CF93DF93EC01A6
:101DE0004096FC018BE0DF011D928A95E9F782E0C5
:101DF0008C83898783E08E87CE01019661E001DBC9
:101E0000882359F0CE01069661E0FBDA882329F099
:101E1000CE010B9661E0F5DA01C080E0DF91CF9151
:101E20000895DF93CF930F92CDB7DEB7FC01809179
:101E30001E058430F9F4248935894689578921158E
:101E4000310541055105B1F081818F708093E90022
:101E50008091E80085FD0AC08091E8008E7780932C
:101E6000E800698333DB6981882329F46093F100FA
:101E700080E001C082E00F90CF91DF910895282F7C
:101E8000FB0184859585622FCCDF882319F02FEF25
:101E90003FEF02C020E030E0C9010895FC018091CD
:101EA0001E05843051F524893589468957892115C5
:101EB00031054105510509F181818F708093E90059
:101EC0009091F3008091F200392F20E090E0822B76
:101ED000932B0097A1F09091E8008091E8008E7715
:101EE0008093E80095FD0DC0F1DA882359F49091B4
:101EF000E8009E779093E800089582E0089580E0DE
:101F0000089580E0089520911E05243059F4FC01C5
:101F1000248935894689578921153105410551059F
:101F200009F0BCCF0895FC0180911E05843061F555
:101F3000248935894689578921153105410551057F
:101F400019F186818F708093E9008091E80082FF0B
:101F50001BC09091F3008091F200392F20E090E0B7
:101F6000822B932B009731F48091E8008B7780933C
:101F7000E8000AC03091F3002091F200932F80E036
:101F800030E0282B392B02C020E030E0C901089551
:101F9000FC0180911E05843099F524893589468994
:101FA0005789211531054105510551F186818F7001
:101FB0008093E9008091E80082FF22C09091F300B5
:101FC0008091F200392F20E090E0822B932B009734
:101FD00021F02091F10030E002C02FEF3FEF90910F
:101FE000F3008091F200592F40E090E0842B952B74
:101FF000009741F48091E8008B778093E80002C05D
:102000002FEF3FEFC9010895FC0184859585C0DF5E
:102010009C0197FF02C02EEF3FEFC9010895FB011D
:102020002EE0DB011D922A95E9F723E023832FE3BD
:102030003FE03187208724E030E13387228795878E
:10204000848708950895CF93DF938230910510F42B
:1020500082E090E0E0912905F0912A0540E050E00F
:1020600020E030E026C06081718168177907E0F0D8
:102070006817790781F4828193812115310531F048
:10208000D90113969C938E9312972BC090932A0597
:102090008093290526C04115510519F0641775076D
:1020A00018F4AB01E901DF019F0172816381E72F21
:1020B000F62F3097C1F64115510501F1481B590B18
:1020C0004430510580F412968D919C91139720977E
:1020D00019F09B838A8304C090932A058093290575
:1020E000FD01329646C0FD01E40FF51F81939193E7
:1020F0004250504011965C934E933BC0209127056F
:10210000309128052115310541F42091CE033091FD
:10211000CF0330932805209327052091D0033091D9
:10212000D1032115310541F42DB73EB74091CC03C1
:102130005091CD03241B350BE0912705F091280524
:10214000E217F307A0F42E1B3F0B2817390778F08E
:10215000AC014E5F5F4F2417350748F04E0F5F1FED
:1021600050932805409327058193919302C0E0E0A6
:10217000F0E0CF01DF91CF910895CF93DF930097E7
:1021800009F491C0FC0132971382128260912905F3
:1021900070912A056115710581F420813181280F24
:1021A000391F80912705909128058217930799F58B
:1021B000F0932805E093270576C0DB0180E090E0EE
:1021C00002C0CD01D901AE17BF0748F412962D9178
:1021D0003C91139721153105A1F7CD0121C0B3839F
:1021E000A283EF01499159919E01240F351FA21737
:1021F000B30779F42D913C911197240F351F2E5F71
:102200003F4F3183208312962D913C911397338356
:102210002283009729F4F0932A05E093290543C00F
:10222000DC011396FC93EE9312974D915D91A40FF0
:10223000B51FEA17FB0769F420813181240F351F90
:102240002E5F3F4FEC0139832883228133813B830A
:102250002A83E0E0F0E002C0FB01BC01DB01129642
:102260008D919C9113970097B9F79B012E5F3F4F7B
:102270008D919C911197820F931F4091270550914A
:1022800028054817590779F4309729F410922A0540
:102290001092290502C013821282225030403093DE
:1022A000280520932705DF91CF910895A0E0B0E0A5
:1022B000EBE5F1E147C48C01CB010115110521F4D7
:1022C000C2DE082F192FB1C0D80112979801260F2E
:1022D000371F2A173B0708F4A6C0ED90FC90119712
:1022E000E616F706C8F045E0E416F10408F49DC0D0
:1022F000A701445050404617570708F496C0A7015D
:1023000042505040461B570BF901419351936D9336
:102310007C93CF0132DF89C05B01AE18BF08480152
:102320008E0C9F1CE0912905F0912A05CC24DD2418
:10233000C0E0D0E041C0E815F90599F560817181F0
:10234000AB014E5F5F4F4A155B0558F1AB014A196F
:102350005B09CC24DD246894C1F8C40ED51E8280AC
:10236000A380E5E0CE16D10448F0F9018282A38271
:102370005183408311969C938E9309C0C7010296A6
:10238000860F971F11969C938E93E82DFA2D209718
:1023900019F0FB83EA8349C0F0932A05E0932905ED
:1023A00044C040815181C416D50608F46A01EF018A
:1023B00052814381E52FF42F309709F0BCCF409133
:1023C00027055091280548155905E9F4C816D9067E
:1023D000D0F44091D0035091D1034115510541F4FF
:1023E0004DB75EB76091CC037091CD03461B570B80
:1023F00024173507C0F4309328052093270511963C
:102400009C938E9312C01FDEC82EE6016E01D92E5A
:10241000E601209741F08C2DB801A7012BD0C8010F
:10242000ACDE860102C000E010E0C801CDB7DEB727
:10243000ECE0A4C3FC0188279927E894219120327D
:10244000E9F3293010F02E30C8F32B3239F02D3259
:1024500031F4689403C05BD0820F911D2191205309
:102460002A30C8F31EF4909581959F4F089541EE50
:1024700053E026C0FB01DC0102C001900D924150E7
:102480005040D8F70895FB01DC018D91019080192F
:102490000110D9F3990B0895DC01FB014150504024
:1024A00058F049F001900D920020C1F7E61BF70BA0
:1024B0003197CF0108951C9201900020E9F7F6CFE3
:1024C000FA01A191B081009719F41097E1F0CD01C4
:1024D000DC01CD010D90002011F4C00113C0FB01FF
:1024E0002191222319F02015D9F7F3CFFB01219177
:1024F000201519F41E92119606C02223C1F70D90E3
:102500000020A1F7D001FA01A193B08308957AE0E9
:10251000979F902D879F802D910D11240895A0E005
:10252000B0E0E4E9F2E118C39E01275F3F4F8D81DF
:102530009E816F817885A9016CD02096E2E028C346
:10254000A0E0B0E0E5EAF2E105C30F8118859E0145
:10255000255F3F4FF801838188608383C8016985C7
:102560007A85A90156D0F8012381277F23832096FD
:10257000E4E00CC30F931F93CF93DF938C01EB0127
:102580008B8181FF1BC082FF0DC02E813F818C811A
:102590009D812817390764F4E881F9810193F98353
:1025A000E88306C0E885F985802F0995009731F406
:1025B0008E819F8101969F838E8302C00FEF1FEF54
:1025C000C801DF91CF911F910F910895EF92FF9273
:1025D0000F931F93CF93DF937C01EB018B8181FFDE
:1025E00011C000E010E008C0E885F985BE0109953A
:1025F000009711F00FEF1FEFF70181917F01882302
:1026000099F702C00FEF1FEFC801CDB7DEB7E6E0C4
:10261000BBC2ACE0B0E0EEE0F3E18EC26C011B01A6
:102620008A01FC0117821682838181FFC4C12E01B9
:102630000894411C511CF6019381F10193FD859191
:1026400093FF81911F01882309F4B1C1853239F4C8
:1026500093FD859193FF81911F01853221F490E0D4
:10266000B60188DFE8CFEE24FF2420E02032B0F46A
:102670008B3269F08C3228F4803251F0833271F45D
:102680000BC08D3239F0803349F421602CC02260B8
:10269000246029C0286027C0206125C027FD2CC0E8
:1026A000382F30533A3098F426FF08C08E2D880F0B
:1026B000E82EEE0CEE0CE80EE30E15C08F2D880F01
:1026C000F82EFF0CFF0CF80EF30E20620CC08E32B9
:1026D00021F426FD6CC1206406C08C3611F42068FC
:1026E00002C0883649F4F10193FD859193FF8191F1
:1026F0001F01882309F0BACF982F9554933018F012
:102700009052933028F40C5F1F4FFFE3F9830DC004
:10271000833631F0833771F0833509F05CC021C016
:10272000F801808189830E5F1F4F420171E0A72E5F
:10273000B12C15C062E0662E712C600E711EF8017E
:102740008080918026FF03C06E2D70E002C06FEF85
:102750007FEFC4012C8787D15C0183012C852F7703
:1027600016C052E0652E712C600E711EF80180803B
:10277000918026FF03C06E2D70E002C06FEF7FEFE7
:10278000C4012C8765D15C012C852068830123FD61
:102790001EC007C080E290E0B6012C87EBDEFA9401
:1027A0002C858F2D90E0A816B906A0F310C0F40177
:1027B00027FD859127FF81914F0190E0B6012C877D
:1027C000D9DE2C85F110FA940894A108B108A1145F
:1027D000B10469F7E9C0843611F0893641F527FF65
:1027E00008C0F80160817181828193810C5F1F4F65
:1027F00009C0F80160817181882777FD8095982F45
:102800000E5F1F4F4FE6B42EB22297FF09C090957E
:102810008095709561957F4F8F4F9F4FF0E8BF2A4D
:10282000A2012AE030E02AD1782E741844C08537FE
:1028300031F43FEEB32EB2222AE030E025C099EF0A
:10284000B92EB2228F36C1F0803720F4883509F0D6
:10285000AEC00DC0803721F0883709F0A8C002C093
:1028600020E1B22AB4FE0BC084E0B82A08C0B4FE4E
:1028700009C0E6E0BE2A06C028E030E005C020E13D
:1028800030E002C020E132E0B7FE08C0F80160810C
:102890007181828193810C5F1F4F07C0F8016081B5
:1028A000718180E090E00E5F1F4FA201E7D0782E8B
:1028B0007418FFE7BF22B6FE0BC02EEFB2227E14C3
:1028C00038F4B4FE07C0B2FC05C08FEEB82202C0D7
:1028D000A72C01C0AE2C8B2D90E0B4FE0DC0FE01E4
:1028E000E70DF11D2081203319F4E9EEBE2209C065
:1028F000A394B2FE06C004C086789070009709F0D9
:10290000A3948B2C9924B3FC13C0B0FE0EC0AF145B
:1029100028F4E72CEF0CEA18AF2C07C0E72C05C011
:1029200080E290E0B60126DEA394AF14C8F304C0A1
:10293000AF1410F4FA1801C0FF2484FE0EC080E327
:1029400090E0B60117DE82FE1DC081FE03C088E55F
:1029500090E010C088E790E00DC0C40186789070C8
:10296000009781F081FC02C080E201C08BE2B7FCDD
:102970008DE290E0B601FEDD05C080E390E0B60197
:10298000F9DDEA947E14C8F37A94F201E70DF11DA3
:10299000808190E0B601EEDD7720B1F705C080E2DE
:1029A00090E0B601E7DDFA94FF20C9F744CEF601C6
:1029B0002681378102C02FEF3FEFC9012C96E2E15B
:1029C000D7C0DC01CB01FC01F999FECF06C0F2BDF6
:1029D000E1BDF89A319600B40D9241505040B8F7DD
:1029E0000895F999FECF92BD81BDF89A992780B5D7
:1029F0000895DC01A40FB51F4150504040F0CB01B9
:102A0000840F951F2E9105D041505040D8F708955E
:102A1000262FF999FECF92BD81BDF89A019700B497
:102A2000021639F01FBA20BD0FB6F894FA9AF99A37
:102A30000FBE0895262FF999FECF1FBA92BD81BD12
:102A400020BD0FB6F894FA9AF99A0FBE0196089530
:102A5000FC010590615070400110D8F78095909569
:102A60008E0F9F1F0895FC0161507040019001106E
:102A7000D8F7809590958E0F9F1F0895FA01AA2789
:102A8000283051F1203181F1E8946F936E7F6E5FB1
:102A90007F4F8F4F9F4FAF4FB1E03ED0B4E03CD05F
:102AA000670F781F891F9A1FA11D680F791F8A1F42
:102AB000911DA11D6A0F711D811D911DA11D20D0A9
:102AC00009F468943F912AE0269F11243019305D63
:102AD0003193DEF6CF010895462F4770405D419354
:102AE000B3E00FD0C9F7F6CF462F4F70405D4A33A1
:102AF00018F0495D31FD4052419302D0A9F7EACF69
:102B0000B4E0A6959795879577956795BA95C9F797
:102B100000976105710508959B01AC010A2E06948A
:102B20005795479537952795BA95C9F7620F731F43
:102B3000841F951FA01D08952F923F924F925F9280
:102B40006F927F928F929F92AF92BF92CF92DF92BD
:102B5000EF92FF920F931F93CF93DF93CDB7DEB722
:102B6000CA1BDB0B0FB6F894DEBF0FBECDBF0994B6
:102B70002A88398848885F846E847D848C849B840D
:102B8000AA84B984C884DF80EE80FD800C811B811B
:102B9000AA81B981CE0FD11D0FB6F894DEBF0FBE4A
:0A2BA000CDBFED010895F894FFCFBA
:102BAA007B226368616E6E656C223A25692C226805
:102BBA006F6D655F61646472223A5B25692C20251A
:102BCA00692C2025692C2025695D2C0D0A00226EAE
:102BDA006F64652569223A207B226E756D62657283
:102BEA00223A25692C2022656E61626C65223A259B
:102BFA00692C202261646472657373223A25692CF8
:102C0A0020226E616D65223A222573222C202274BD
:102C1A00797065223A25697D2C0D0A00226E6F644F
:102C2A00652569223A207B226E756D626572223AA9
:102C3A0025692C2022656E61626C65223A25692C11
:102C4A00202261646472657373223A25692C2022FA
:102C5A006E616D65223A222573222C2022747970C6
:102C6A0065223A25697D0D0A007D0D0A007B200D3B
:102C7A000A00226E6F64652569223A207B002C20A7
:102C8A000D0A226E6F64652569223A207B00226D47
:102C9A0073676964223A25692C2000226461746191
:102CAA002569223A25692C20002264617461302248
:102CBA003A2569207D000D0A207D0D0A0073746F84
:102CCA00700073746F7065640D0A007374617274B6
:102CDA0000737461727465640D0A006366675F63EA
:102CEA006800486F6D65204368616E6E656C3A20B6
:102CFA002569200D0A006366675F686F6D655F610D
:102D0A00646472000D0A486F6D65204164647265DF
:102D1A007373003A256900200D0A00656E61626CC2
:102D2A0065006E6F646520656E61626C65643A2049
:102D3A0025690D0A0064697361626C65006E6F64CF
:102D4A00652064697361626C65643A2025690D0ABD
:102D5A00006366675F6E6F64655F6E616D65006EC6
:102D6A006F6465206E616D653A20256920257320A0
:102D7A000D0A006366675F6E6F64655F6164647203
:102D8A00006E6F646520616464726573733A20250E
:102D9A00692025690D0A006366675F6E6F64655F67
:102DAA0074797065006E6F646520747970653A2075
:102DBA0025692025690D0A007072696E745F636661
:102DCA0067007265736574006765740073656E6485
:102DDA0000446174612053656E74205375636365A2
:102DEA00737366756C6C790D0A00446174612053C3
:102DFA00656E74204661696C65640D0A0073656EC0
:102E0A00645F63666700436F6E66696775726174B3
:102E1A00696F6E2053656E742053756363657373AF
:102E2A0066756C6C790D0A00436F6E666967757218
:102E3A006174696F6E2053656E74204661696C65B2
:102E4A00640D0A0068656C7000202C00E7E7E7E76C
:102E5A00E70083100000010410000001820800004E
:102E6A0001000000000000000000000020002B0507
:022E7A00000056
:00000001FF
