:1000000099C1000030C60000B1C10000AFC10000BE
:10001000ADC10000ABC10000A9C10000A7C1000034
:10002000A5C10000A3C100000C94FC090C94C50AF2
:100030009DC100009BC1000099C1000097C1000054
:1000400095C1000093C1000091C100008FC1000064
:100050008DC100008CC1000089C1000087C1000073
:1000600085C1000083C1000081C100007FC1000084
:100070007DC100007BC1000079C1000077C1000094
:1000800075C1000073C1000071C100006FC10000A4
:100090006DC100006BC1000069C1000067C10000B4
:1000A00065C1000063C1000061C1000073746F701E
:1000B0002009090973746F70206465627567206395
:1000C0006F6E74696E7565206F75747075740D0A46
:1000D0007374617274200909097374617274206405
:1000E0006562756720636F6E74696E7565206F75E4
:1000F000747075740D0A6366675F63682009090987
:100100007B302D38337D0D0A6366675F686F6D65E0
:100110005F6164647209097B302D3235357D2C7B3B
:10012000302D3235357D2C7B302D3235357D2C7B95
:10013000302D3235357D0D0A656E61626C652009A2
:1001400009097B6E6F6465237D20656E61626C6555
:10015000206E6F64650D0A64697361626C652009C5
:1001600009097B6E6F6465237D2064697361626C2D
:1001700065206E6F64650D0A6366675F6E6F646508
:100180005F616464722009097B6E6F6465237D2062
:100190007B302D3235357D0D0A6366675F6E6F6487
:1001A000655F6E616D652009097B6E6F6465237DF7
:1001B000205B31305D0D0A6366675F6E6F64655F5B
:1001C000747970652009097B302D357D207B302DB9
:1001D0003235357D0D0A7072696E745F6366672013
:1001E00009095072696E742074686520636F6E66C9
:1001F000696775726174696F6E204A534F4E0D0ABC
:100200007265736574200909097265736574206DE0
:10021000617374657220636F6E666967757261746D
:10022000696F6E0D0A73656E645F63666720090906
:100230007B6E6F6465237D0D0A676574200909096B
:100240005072696E74204A534F4E20616374697610
:1002500065206E6F6465730D0A73656E642009090D
:10026000097B6E6F6465237D2C207B302D32353504
:100270007D2C207B302D3235357D2C207B302D326E
:1002800035357D2C207B302D3235357D0D0A686566
:100290006C70200909097072696E74207468697342
:1002A0002068656C700D0A001C034C005500460068
:1002B000410020004300440043002000440065004A
:1002C0006D006F00000018034400650061006E00BF
:1002D0002000430061006D006500720061000000B5
:1002E0000403090409023E00020100C032090400AF
:1002F0000001020201000524001001042402060589
:1003000024060001070582030800FF09040100021A
:100310000A0000000705040210000507058302100B
:1003200000051201100102000008EB034420000048
:100330000102DC0111241FBECFEFDAE0DEBFCDBF2A
:1003400013E0A0E0B1E0E8E9F9E202C005900D9207
:10035000AC3BB107D9F715E0ACEBB3E001C01D929F
:10036000A631B107E1F7D2D40C94CA1449CE1F923A
:100370000F920FB60F9211242F933F934F935F93D9
:100380006F937F938F939F93AF93BF93EF93FF935D
:100390000E94300DFF91EF91BF91AF919F918F918E
:1003A0007F916F915F914F913F912F910F900FBE71
:1003B0000F901F9018957F928F929F92AF92BF924D
:1003C000CF92DF92EF92FF920F931F93CF93DF9321
:1003D00000D000D01F92CDB7DEB788EE90E00E942B
:1003E000E813182F45E050E064EE70E0CE0101966E
:1003F0000E94D8138C811F928F938B811F928F93B1
:100400008A811F928F9389811F928F931F921F93CE
:1004100086E291E09F938F938DEB93E09F938F9370
:100420000E94891193E3E92E94E0F92E0FB6F89417
:10043000DEBF0FBECDBF00E010E023E1722E34E539
:10044000832E31E0932E4DEBA42E43E0B42EF70122
:1004500080811F928F93709EC001719E900D112418
:100460008C5D9B4F9F938F93709780811F928F938A
:10047000F701729780811F928F93F70171978081A6
:100480001F928F931F930F939F928F928DEBC82E85
:1004900083E0D82EBF92AF920E9489110F5F1F4F49
:1004A000F3E1EF0EF11C0FB6F894DEBF0FBECDBF27
:1004B0000B30110561F6809104051F928F9385EF33
:1004C00094E09F938F938091F4041F928F93809177
:1004D000F2041F928F938091F3041F928F931F92C7
:1004E0008BE08F9382EA91E09F938F93DF92CF927C
:1004F0000E948911B6018FE292E00E94E2110FB6CC
:10050000F894DEBF0FBECDBF0F900F900F900F90ED
:100510000F90DF91CF911F910F91FF90EF90DF909F
:10052000CF90BF90AF909F908F907F90089560E0A4
:1005300088EE90E00E941114E3E3F4E080E0DF0134
:1005400052971C92DF0151978C93DF0150971C92B8
:10055000DF011F971C9210828F5F73968C3079F7A2
:10056000E5C5A8D420911B0480912004281306C05F
:1005700090911A048091CD039817A9F0E6E1F4E078
:1005800086E0289F9001112422533C4F80E090E0A8
:100590004191D901A80FB91F4C930196863091055E
:1005A000B9F781E0089580E008952F923F924F922D
:1005B0005F926F927F928F929F92AF92BF92CF92F3
:1005C000DF92EF92FF920F931F93CF93DF9300D0B0
:1005D0001F92CDB7DEB76DEB73E08FEE91E00E9416
:1005E000E21151E2A52E54E0B52E6EECE62E63E04A
:1005F000F62E72EDC72E73E0D72E00E010E01982C0
:10060000EDEB2E2EE3E03E2EFFE14F2EF2E05F2ECB
:10061000A4EF6A2EA1E07A2EB8EF8B2EB1E09B2ECC
:10062000F5018081813009F06AC02981211113C050
:100630001F930F939F928F928DEB93E09F938F93D5
:100640000E9489110F900F900F900F900F900F90B4
:1006500021E0298310C01F930F937F926F928DEB3F
:1006600093E09F938F930E9489110F900F900F90AA
:100670000F900F900F90F60180811F928F9384E06E
:1006800092E09F938F938DEB93E09F938F930E94C3
:1006900089110F900F900F900F900F900F9023E003
:1006A00030E0F701E20FF31F80811F928F933F9399
:1006B0002F9381E192E09F938F938DEB93E09F9333
:1006C0008F932A833B830E9489112A813B81215089
:1006D00031090FB6F894DEBF0FBECDBF11F7F70199
:1006E00080811F928F935F924F923F922F920E9430
:1006F00089110F900F900F900F900F900F900F5F38
:100700001F4FF3E1AF0EB11C26E0E20EF11C46E0F4
:10071000C40ED11C0C30110509F082CF6DEB73E0D3
:100720008CE292E00F900F900F90DF91CF911F918C
:100730000F91FF90EF90DF90CF90BF90AF909F9080
:100740008F907F906F905F904F903F902F900C9480
:10075000E211AF92BF92CF92DF92EF92FF920F938E
:100760001F93CF93DF93CDB7DEB72E970FB6F894D4
:10077000DEBF0FBECDBF20E23CE240E02C873D87CC
:100780004E877E012CE0E20EF11CB7010E94311170
:100790008C0163E372E00E943D11009739F41092DE
:1007A000BC036DEB73E088E392E00EC061E472E09D
:1007B000C8010E943D11009751F481E08093BC0371
:1007C0006DEB73E087E492E00E94E2113BC261E5C9
:1007D00072E0C8010E943D11009719F5B70180E051
:1007E00090E00E943111009709F42CC20E9414116C
:1007F0008C018150833508F025C2602F88EE90E08F
:100800000E941114FBD311271F930F9388E592E0E8
:100810009F938F938DEB93E09F938F930E94891109
:1008200077C06CE672E0C8010E943D11009769F044
:1008300043C00E941411212F30E0682FC9018C5150
:100840009F4F0E9411141F5F02C010E00F2D6E2DEC
:10085000702F80E090E00E943111009751F7CED3C5
:100860006DEB73E08AE792E00E94E21104EE10E083
:1008700089E8C82E82E0D82E9DEBE92E93E0F92E70
:10088000C8010E94E8131F928F93DF92CF92FF92CC
:10089000EF920E9489110F5F1F4F0F900F900F90E2
:1008A0000F900F900F9080E0093E180749F76DEB0D
:1008B00073E088E692E088CF6DE872E0C8010E949C
:1008C0003D11009761F5B70180E090E00E94311181
:1008D000009709F4B7C10E9414118C3008F0B2C11E
:1008E0008C01112723E1829FF0011124EF5DFB4F62
:1008F00081E080831BD41F930F9384E992E09F9340
:100900008F938DEB93E09F938F930E94891176D301
:100910000F900F900F900F900F900F9093C167EA78
:1009200072E0C8010E943D110097E1F4B70180E038
:1009300090E00E943111009709F484C10E941411C3
:100940008C3008F07FC18C01112723E1829FF001D8
:100950001124EF5DFB4F1082E9D31F930F938FEAB1
:1009600092E0CDCF63EC72E0C8010E943D11009788
:10097000A1F5B70180E090E00E943111009709F4E1
:1009800061C10E9414118C018C3008F05BC1B70169
:1009900080E090E00E943111009709F453C1780182
:1009A000FF24E3E10E9F800111240C5D1B4F4FE0FB
:1009B00050E0BC01C8010E944611B8D31F930F93A9
:1009C000FF92EF9281ED92E09F938F938DEB93E0F6
:1009D0009F938F930E9489113CC065EE72E0C8011D
:1009E0000E943D110097D9F5B70180E090E00E9488
:1009F0003111009709F426C10E9414118C018C302A
:100A000008F020C1BE01645F7F4F80E090E00E944B
:100A10003111009709F416C10E9414116C0178017C
:100A2000FF2493E1099FF0011124EF5DFB4FC28287
:100A30007DD3DD24DF92CF92FF92EF9283EF92E09D
:100A40009F938F938DEB93E09F938F930E948911D7
:100A5000D5D20FB6F894DEBF0FBECDBFF3C069E0AC
:100A600073E0C8010E943D11009769F5B70180E06D
:100A700090E00E943111009709F4E4C00E94141123
:100A80008C018C3008F0DEC0BE01645F7F4F80E0D7
:100A900090E00E943111009709F4D4C00E94141113
:100AA0006C017801FF2423E1029FF0011124EF5D26
:100AB000FB4F828B3BD3DD24DF92CF92FF92EF92EC
:100AC00087E193E0BDCF6AE273E0C8010E943D1167
:100AD000009711F470DCB6C064E373E0C8010E94B3
:100AE0003D11009711F423DDADC06AE373E0C80146
:100AF0000E943D11009711F458DDA4C06EE373E02D
:100B0000C8010E943D11009709F062C07E019CE07F
:100B1000E90EF11CB70180E090E00E9431110097CE
:100B200009F490C00E941411A82EB82EEBE0E8172B
:100B300008F488C019821A821B821C821D821E82C0
:100B40008E010F5F1F4F6E01F5E0CF0ED11C05C067
:100B50000E941411F80181938F01B70180E090E0A9
:100B60000E943111009719F00C151D0589F7BE82FE
:100B7000B09220048091CD038D838F5F8093CD034D
:100B800045E050E064EE70E0CE0107960E94D81375
:100B900023E1A29EF0011124EF5DFB4F82818B8740
:100BA00088EE90E00E94E813BE01695F7F4F97D105
:100BB000CE010196AED16DEB73E0813019F483E480
:100BC00093E002C08CE593E00E94E21117D23AC094
:100BD0006FE673E0C8010E943D110097F1F4BE0179
:100BE000645F7F4F80E090E00E943111009751F1E7
:100BF0000E941411182F8C3028F56BE171E082E00F
:100C00006ED1812FA6D16DEB73E0813019F488E7A6
:100C100093E0DACF8AE993E0D7CF66EB73E0C801BF
:100C20000E943D11009771F48CEA90E09F938F939E
:100C30008DEB93E09F938F930E949B110F900F90E9
:100C40000F900F902E960FB6F894DEBF0FBECDBF5B
:100C5000DF91CF911F910F91FF90EF90DF90CF9098
:100C6000BF90AF9008951F920F920FB60F9211246C
:100C70002F933F934F935F936F937F938F939F93A4
:100C8000AF93BF93EF93FF938091BC03882319F038
:100C900068DC81118ADC8EB190E489278EB9FF91DE
:100CA000EF91BF91AF919F918F917F916F915F91E4
:100CB0004F913F912F910F900FBE0F901F9018955D
:100CC00084B7877F84BF88E10FB6F8948093600073
:100CD000109260000FBE90E880E00FB6F8949093F9
:100CE0006100809361000FBE85B5886085BD85B5C4
:100CF000856085BD84B5826084BDEEE6F0E08081CC
:100D00008260808397BD60D36E9A0895D9DF5ED0EC
:100D100075D16DEB73E080E091E0C9D7789410E075
:100D2000C0E0D0E03BC080E091E07FD7082F883062
:100D300011F08F3751F46DEB73E08FE790E00E9474
:100D4000B611123098F0125012C061E070E0CE017E
:100D50000E945310EC01FC01E10FF11D00836DEBCB
:100D600073E0802F90E00E94B61101C01FEFFE01DA
:100D7000E10FF11D80818A3011F08D3071F4108205
:100D80006DEB73E08AE090E00E94B611CE01E1DCE9
:100D9000CE010E94B80F10E007C01F5F80E091E015
:100DA00014D7892B09F0BFCF80E091E0FFD6F6CFB2
:100DB0000895089580E091E06FC680E091E08BC7D0
:100DC000FC01208920FF1092BC03089584B1876143
:100DD00084B92B9A289A83E58CBD089512C0242FDC
:100DE00030E021503109FC01E20FF31F50815EBD5C
:100DF0000DB407FEFDCF5EB5FB01E20FF31F50837C
:100E000041504111ECCF08950AC0FC01E60FF11DDD
:100E1000319720812EBD0DB407FEFDCF61506111C9
:100E2000F4CF08958EBD0DB407FEFDCF8EB50895A5
:100E30002898F8DF289A0895CF93DF931F92CDB7B3
:100E4000DEB728988F7180626983ECDF6981862F15
:100E5000E9DF289A0F90DF91CF9108950F931F93A8
:100E6000CF93DF931F92CDB7DEB78B0128988F7198
:100E700080624983D7DF4981642FC801C5DF289A82
:100E80000F90DF91CF911F910F91089528988FEFC8
:100E9000C9DF289A85FF05C060E287E0CDDF81E0E9
:100EA000089584FF05C060E187E0C6DF82E0089511
:100EB00080E00895CF932C98289881E6B3DFC82F5F
:100EC00046E066E174E0CB0189DF289A60E487E0C0
:100ED000B3DF2C9A8C2F86958770CF910895CF938E
:100EE000DF93EB01E8982C98682F85E0A5DF45E0BB
:100EF000BE018AE0B3DF45E0BE0180E1AFDF61E023
:100F000082E09ADF81EE94DF6EE780E0DF91CF919F
:100F100093CF1F93CF93DF93EC012C98289880EA0E
:100F200081DF46E0BE01CE0159DF289A2C9A8AE67D
:100F30008A95F1F700C02C9860E387E07DDFA6DF9B
:100F40001F5F811102C01233D0F3DF91CF911F9147
:100F500008951F93CF93DF9300D000D01F92CDB799
:100F6000DEB7182F45E050E064EE70E0CE01019648
:100F70000E94D8138981809316048A818093170474
:100F80008B81809318048C818093190483E1189FCE
:100F9000F0011124EF5DFB4F828180931A0481815F
:100FA00080931B0488EE90E00E94E81380931C0459
:100FB000289880EA37DF47E066E174E0CB010EDF76
:100FC000289A2C9A8AE68A95F1F700C02C9812E3A9
:100FD0005DDF811102C01150D9F70F900F900F9073
:100FE0000F900F90DF91CF911F91089544EE50E044
:100FF00060E070E081E294E00C94D8131F93CF93EB
:10100000DF9300D000D01F92CDB7DEB72C98EEDF73
:1010100088EE90E00E94E813682F85E00DDF45E040
:1010200050E064EE70E0CE0101960E94D8138091EA
:101030002104813071F4809123048D8345E0BE0149
:101040006F5F7F4F8AE00ADF66E081E1F5DE11E045
:1010500001C010E080913404813069F4809136043D
:101060008D8345E0BE016F5F7F4F8BE0F7DE66E06A
:1010700082E1E2DE126080914704813071F445E044
:10108000BE016F5F7F4F8BE0E9DE609149048CE029
:10109000D3DE66E083E1D0DE146080915A048130B3
:1010A00071F445E0BE016F5F7F4F8BE0D7DE60914A
:1010B0005C048DE0C1DE66E084E1BEDE18608091F4
:1010C0006D04813071F445E0BE016F5F7F4F8BE0AE
:1010D000C5DE60916F048EE0AFDE66E085E1ACDED8
:1010E000106180918004813071F445E0BE016F5F32
:1010F0007F4F8BE0B3DE609182048FE09DDE66E07F
:1011000086E19ADE1062612F82E096DE82EE90DE4A
:101110006FE380E091DE2C9AE89A0F900F900F9089
:101120000F900F90DF91CF911F91089544EE50E002
:1011300060E070E081E294E00C94F013292F3327F3
:101140002230310539F02330310549F021303105A5
:1011500021F128C0EEE3F0E084EE92E027C0992769
:101160008130910561F08230910581F0892BD1F4B5
:10117000E0EEF2E0E491F0E080EE92E017C0E6EC01
:10118000F2E0E491F0E086EC92E010C0E8EAF2E0F0
:10119000E491F0E088EA92E009C0E2E1F0E082E266
:1011A00093E004C0E0E0F0E080E090E0DA018D93AD
:1011B0009C93CF010895982F2CC09093E900981725
:1011C00039F07091EC002091ED005091F00003C0D7
:1011D000242F762F50E021FD02C09F5F1AC030916E
:1011E000EB003E7F3093EB003091ED003D7F30937C
:1011F000ED003091EB0031603093EB007093EC0028
:101200002093ED005093F0002091EE0027FDE5CFF4
:1012100007C0973090F28F708093E90081E00895C5
:1012200080E008950F931F93CF93DF93062FEC0177
:1012300010E02FC09881911103C01F5F259629C02F
:101240002C81E981FA817B81892F8F70873010F0A2
:1012500080E022C0223010F056E001C052E028E0C9
:1012600030E040E003C04F5F220F331F2E173F07CF
:10127000D0F34295407F452B692F661F6627661F76
:1012800090E4799F90011124622B95DF8111D5CFD5
:10129000DFCF1013CFCF81E0DF91CF911F910F915E
:1012A000089580910A0587FD05C08091E80080FFC0
:1012B0000EC012C08091E80082FD05C08091090532
:1012C0008111F8CF08958091E8008B7708C0809154
:1012D00009058111EACF08958091E8008E77809307
:1012E000E80008958091E4009091E50045E62091A2
:1012F000EC0020FD1FC023C020910905222391F09E
:10130000253091F02091EB0025FD10C02091E400E4
:101310003091E5002817390751F34150C90139F7D9
:1013200084E0089582E0089583E0089581E00895BF
:1013300080E008952091E80020FFDECFF9CF2091D2
:10134000E80022FFD9CFF4CF0F931F93CF93DF9301
:1013500046D04DD0C8EDD0E088818F7788838881D2
:101360008068888388818F7D888319BC10920905E5
:1013700010920505109207051092060500EE10E088
:10138000F80180818B7F808388818160888342E03F
:1013900060E080E010DFE1EEF0E080818E7F80830E
:1013A000E2EEF0E0808181608083808188608083CC
:1013B000F80180818E7F8083888180618883DF91BE
:1013C000CF911F910F910895E7EDF0E0808181604A
:1013D000808384E082BF81E080930805B5CFE8ED8B
:1013E000F0E080818E7F80831092E2000895109259
:1013F000DA001092E10008951F920F920FB60F923B
:1014000011242F933F934F935F936F937F938F9309
:101410009F93AF93BF93EF93FF938091E10082FF7F
:101420000AC08091E20082FF06C08091E1008B7FBC
:101430008093E10014D38091DA0080FF1DC0809179
:10144000D80080FF19C08091DA008E7F8093DA0087
:101450008091D90080FF0CC080E189BD82E189BD07
:1014600009B400FEFDCF81E080930905A1DC04C032
:1014700019BC109209059DDC8091E10080FF18C025
:101480008091E20080FF14C08091E2008E7F809303
:10149000E2008091E20080618093E2008091D800B8
:1014A00080628093D80019BC85E080930905D7D26B
:1014B0008091E10084FF2DC08091E20084FF29C06B
:1014C00080E189BD82E189BD09B400FEFDCF809134
:1014D000D8008F7D8093D8008091E1008F7E80932B
:1014E000E1008091E2008F7E8093E2008091E20033
:1014F00081608093E20080910505811104C0809194
:10150000E30087FF02C084E001C081E08093090509
:10151000A6D28091E10083FF27C08091E20083FF83
:1015200023C08091E100877F8093E10082E0809377
:101530000905109205058091E1008E7F8093E100FE
:101540008091E2008E7F8093E2008091E2008061D2
:101550008093E20042E060E080E02DDE8091F000C8
:1015600088608093F0007BD2FF91EF91BF91AF91A3
:101570009F918F917F916F915F914F913F912F91AB
:101580000F900FBE0F901F9018951F920F920FB6DD
:101590000F9211242F933F934F935F936F937F93F9
:1015A0008F939F93AF93BF93CF93EF93FF938091CC
:1015B000E9008F709091EC0090FF02C090E801C0AC
:1015C00090E0C92FC82B1092E9008091F000877F2E
:1015D0008093F0007894DBD01092E9008091F000C5
:1015E00088608093F000CF70C093E900FF91EF9185
:1015F000CF91BF91AF919F918F917F916F915F91AB
:101600004F913F912F910F900FBE0F901F90189503
:1016100040911005509111054617570748F0611584
:10162000710539F44091E8004E774093E80001C01D
:10163000BA01FC0140E033C080910905882309F418
:1016400042C0853009F441C08091E80083FD39C073
:101650008091E80082FD2FC08091E80080FF1FC0CC
:101660009091F3008091F200392F20E0A901482BDE
:10167000CA0106C041914093F10061507109019681
:101680006115710519F088309105A0F341E00897C4
:1016900009F040E08091E8008E778093E8006115C2
:1016A000710551F64111C8CF06C080910905882304
:1016B00051F0853051F08091E80082FFF6CF80E054
:1016C000089581E0089582E0089583E008954091AF
:1016D0001005509111054617570748F0611571051F
:1016E00039F44091E8004E774093E80001C0BA0118
:1016F000FC0140E034C080910905882309F443C00F
:10170000853009F442C08091E80083FD3AC08091A1
:10171000E80082FD30C08091E80080FF20C09091F9
:10172000F3008091F200392F20E0A901482BCA0173
:1017300007C044914093F1003196615071090196C0
:101740006115710519F08830910598F341E008970B
:1017500009F040E08091E8008E778093E800611501
:10176000710549F64111C7CF06C08091090588234C
:1017700051F0853051F08091E80082FFF6CF80E093
:10178000089581E0089582E0089583E00895EF923E
:10179000FF920F931F93CF93DF93CDB7DEB7AC9734
:1017A0000FB6F894DEBF0FBECDBFEAE0F5E0809142
:1017B000F100819325E0E231F207C9F7FEDA80916A
:1017C000E80083FF31C180910A0590910B059530A7
:1017D00009F487C038F49130B1F170F0933009F01A
:1017E00023C131C0983009F4F4C0993009F400C124
:1017F000963009F019C19CC0803821F0823809F078
:1018000013C108C08091060590910705992389F0BE
:1018100082600FC080910E0590910F058F709927FF
:101820008093E9008091EB0085FB882780F9109276
:10183000E9009091E800977F9093E8008093F10091
:101840001092F100D1C0882319F0823009F0ECC069
:101850008F7121F0823009F0E7C00BC080910C0538
:10186000813009F0E1C0933009F080E080930705F2
:101870002FC080910C0581112BC080910E05909195
:101880000F058F709927009709F4CEC08093E90067
:101890002091EB0020FF1CC020910B05233021F488
:1018A0008091EB00806212C09091EB009061909368
:1018B000EB0021E030E001C0220F8A95EAF7209387
:1018C000EA001092EA008091EB0088608093EB00C0
:1018D0001092E9008091E800877F8093E800E1DCC6
:1018E000A3C08111A1C000910C0510910D050F77C7
:1018F0001127E02EFFB6F8948091E800877F80934F
:10190000E800CFDC8091E80080FFFCCF8091E3000D
:101910008078802B8093E30080688093E300EE2042
:1019200011F083E001C082E080930905FFBE7CC016
:101930008058823008F078C080910C0590910D0598
:101940008C3D23E0920771F583E08A838AE28983E4
:101950004FB7F894DE01139620E03EE051E2E32F0A
:10196000F0E050935700E49120FF03C0E295EF7040
:101970003F5FEF708E2F90E0EA3010F0C79601C005
:10198000C0968D939D932F5F243149F74FBF80916F
:10199000E800877F8093E8006AE270E0CE0101965C
:1019A00037DE11C0AE01455D5F4F60910E05C6DBAD
:1019B0000097D1F12091E800277F2093E800BC0137
:1019C0008BA59CA584DE8091E8008B778093E8004E
:1019D0002BC0803849F58091E800877F8093E8002C
:1019E000809105058093F1008091E8008E7775CF96
:1019F00081111AC090910C059230B0F48091E800EA
:101A0000877F8093E800909305054BDC8091050566
:101A1000811104C08091E30087FF02C084E001C00F
:101A200081E080930905C6D98091E80083FF0AC050
:101A30008091EB0080628093EB008091E800877FCB
:101A40008093E800AC960FB6F894DEBF0FBECDBF12
:101A5000DF91CF911F910F91FF90EF90089508951E
:101A6000CF93809109058823A9F08091E9008F70B8
:101A70009091EC0090FF02C090E801C090E0C92F67
:101A8000C82B1092E9008091E80083FD80DECF70C2
:101A9000C093E900CF910895CF93DF93EC01409676
:101AA000FC018BE0DF011D928A95E9F782E08C83CF
:101AB000898783E08E8761E0CE010196B3DB8823BE
:101AC00061F061E0CE010696ADDB882331F061E084
:101AD000CE010B96DF91CF91A5CB80E0DF91CF9126
:101AE0000895CF93C62F209109052430F1F4FC010D
:101AF0004489558966897789452B462B472BA9F060
:101B000081818F708093E9008091E80085FF04C097
:101B1000C093F10080E00AC08091E8008E77809346
:101B2000E800E0DB8823A1F301C082E0CF910895B3
:101B3000FB01682F84859585D4DF882319F02FEF6A
:101B40003FEF02C020E030E0C9010895209109056F
:101B5000243051F5FC014489558966897789452BE4
:101B6000462B472B09F181818F708093E9003091DA
:101B7000F3002091F200932F80E0822B892B11F447
:101B800080E008959091E8008091E8008E7780933E
:101B9000E80095FDF5CFA6DB811107C09091E80024
:101BA0009E779093E800089582E0089520910905BA
:101BB000243051F4FC014489558966897789452B85
:101BC000462B472B09F0C2CF0895209109052430F8
:101BD00009F01FC0FC014489558966897789452B26
:101BE000462B472BB1F086818F708093E90080915E
:101BF000E80082FF0EC03091F3002091F200932F95
:101C000080E0822B892B41F48091E8008B778093D0
:101C1000E80020E030E007C09091F3008091F200EE
:101C2000392F20E0282BC90108952091090524307F
:101C300019F02FEF3FEF2EC0FC01448955896689CA
:101C40007789452B462B472BA1F386818F70809394
:101C5000E9008091E80082FFECCF3091F300209101
:101C6000F200932F80E0822B892B21F02091F1004C
:101C700030E002C02FEF3FEF5091F3004091F200AF
:101C8000952F80E0842B892B29F48091E8008B77B5
:101C90008093E800C9010895FC0184859585C5DF1E
:101CA0009C0197FF02C02EEF3FEFC9010895FB0191
:101CB0002EE0DB011D922A95E9F723E0238328E932
:101CC0003DE0318720872CE43EE0338722879587EB
:101CD000848708950895CF93DF93EC018091E80005
:101CE00083FFA8C0888190E020910E0530910F05F8
:101CF0002817390709F09EC080910B05813261F0E9
:101D000020F4803209F096C03DC0823209F46DC0E3
:101D1000833209F08FC07EC080910A05813A09F0B4
:101D200089C08091E800877F8093E8008091E80077
:101D300080FFFCCF4C895D896E897F894093F100DB
:101D4000BB27A72F962F852F8093F100CB01AA27C1
:101D5000BB278093F100472F5527662777274093AD
:101D6000F100888D8093F100898D8093F1008A8D38
:101D70008093F1008091E8008E778093E800DF91F6
:101D8000CF918FCA80910A05813209F053C08091AA
:101D9000E800877F8093E80005C0809109058823CB
:101DA00009F448C08091E80082FFF7CF3091F1003C
:101DB0002091F1009091F1008091F1003C8B2D8BEE
:101DC0009E8B8F8B8091F100888F8091F100898F9D
:101DD0008091F1008A8F8091E8008B778093E800F2
:101DE00060DACE01DF91CF9175CF80910A05813203
:101DF00009F58091E800877F8093E80052DA8091AE
:101E00000C0590910D05998B888BCE01DF91CF91B8
:101E10000C94E00680910A05813261F48091E8001B
:101E2000877F8093E8003DDA60910C05CE01DF9159
:101E3000CF9150CFDF91CF9108950F931F93CF9300
:101E4000DF938230910510F482E090E0E091140578
:101E5000F091150520E030E0C0E0D0E023C04081E3
:101E6000518148175907A8F04817590761F4828132
:101E70009381209719F09B838A832EC09093150538
:101E80008093140529C02115310529F04217530705
:101E900010F0A90102C0BE01DF0102811381EF0130
:101EA0009A01F8013097D9F62115310509F1281B5F
:101EB000390B2430310590F412968D919C91139733
:101EC0006115710521F0FB019383828304C0909317
:101ED000150580931405FD01329644C0FD01E20F03
:101EE000F31F81939193225031092D933C933AC073
:101EF0002091120530911305232B41F420912201EA
:101F00003091230130931305209312052091200175
:101F1000309121012115310541F42DB73EB7409193
:101F2000240150912501241B350BE0911205F091FD
:101F30001305E217F307A0F42E1B3F0B28173907F0
:101F400078F0AC014E5F5F4F2417350748F04E0F15
:101F50005F1F50931305409312058193919302C024
:101F6000E0E0F0E0CF01DF91CF911F910F91089554
:101F7000EF92FF920F931F93CF93DF93009709F493
:101F80008EC0DC01129713961C921E921297E0905D
:101F90001405F0901505E114F10489F42D913C919C
:101FA0001197280F391F8091120590911305821700
:101FB000930789F5B0931305A093120570C0E7014C
:101FC00020E030E001C0EA01CA17DB0738F44A819B
:101FD0005B819E0141155105B1F722C0AC01425011
:101FE0005109FA01D383C28300811181BC01600FC2
:101FF000711F6C177D0761F468817981600F711F13
:102000006E5F7F4F718360836A817B81738362839C
:102010002115310529F4B0931505A09314053FC08F
:10202000F901B383A283E90149915991C40FD51FE6
:10203000AC17BD0771F4DC019E918E91840F951F42
:1020400002969183808312968D919C91139793832E
:102050008283A0E0B0E002C0D7017C01F701828159
:1020600093810097C9F7C701029620813181820FC1
:10207000931F20911205309113052817390779F421
:10208000109729F4109215051092140504C01396A8
:102090001C921E921297F0921305E0921205CDB792
:1020A000DEB7E6E068C4A0E0B0E0E8E5F0E141C4F6
:1020B000EC01009721F4CB01C0DEEC01B0C0DC01E3
:1020C000A60FB71FFC013297AE17BF0718F4C0E088
:1020D000D0E0A5C00081118106171707A8F00530D0
:1020E000110508F49CC0C80104978617970708F4E7
:1020F00096C002501109061B170B0D931D93718397
:102100006083CD0135DF8BC06B01C01AD10A7C0121
:10211000E00EF11EE0911405F091150520E030E08D
:1021200080E090E048C0EE15FF05D1F580809180F9
:10213000540142E0A40EB11CAC14BD0488F174013A
:10214000EC18FD08670122E0C20ED11C9E0122504E
:10215000310945E0C416D10478F0428153811396C9
:102160005C934E9312971196FC92EE92F901718353
:1021700060833A2F2B2F09C00E5F1F4F080D191DCA
:10218000D9010D931C9332812381009721F0FC012A
:102190003283238344C030931405209315053FC038
:1021A000808191812817390708F49C01528143816D
:1021B000CF01E52FF42F309709F0B5CF80911205AC
:1021C000909113058E159F05F1F426173707D8F463
:1021D0008091200190912101009741F48DB79EB725
:1021E0002091240130912501821B930BA817B90778
:1021F00008F06DCFB0931305A0931205FE0132973E
:10220000718360830CC0CB0118DE7C01009709F458
:102210005ECFA801BE0128D0CE01AADEE701CE0123
:10222000CDB7DEB7ECE0A1C3FC0188279927E8947D
:1022300021912032E9F3293010F02E30C8F32B32EF
:1022400039F02D3231F4689403C05BD0820F911DB8
:10225000219120532A30C8F31EF4909581959F4F09
:1022600008954BEC53E026C0FB01DC0102C0019055
:102270000D9241505040D8F70895FB01DC018D913B
:10228000019080190110D9F3990B0895DC01FB012D
:102290004150504058F049F001900D920020C1F794
:1022A000E61BF70B3197CF0108951C920190002097
:1022B000E9F7F6CFFA01A191B081009719F41097D0
:1022C000E1F0CD01DC01CD010D90002011F4C00141
:1022D00013C0FB012191222319F02015D9F7F3CF68
:1022E000FB012191201519F41E92119606C022239C
:1022F000C1F70D900020A1F7D001FA01A193B0839E
:1023000008957AE0979F902D879F802D910D11243D
:102310000895A2E0B0E0EEE8F1E115C3AE01455F3B
:102320005F4F5A83498369857A858F81988572D0FA
:102330002296E2E024C3A2E0B0E0E0EAF1E101C3CA
:1023400009851A85AE01435F5F4F5A834983F801BF
:102350008381886083836B857C85C8015BD0F801AD
:102360002381277F23832296E4E007C30F931F93E3
:10237000CF93DF938C01EB018B8181FD03C00FEFC5
:102380001FEF1AC082FF0DC02E813F818C819D817D
:102390002817390764F4E881F9810193F983E88308
:1023A00006C0E885F985802F0995892B41F78E8134
:1023B0009F8101969F838E83C801DF91CF911F91EA
:1023C0000F910895EF92FF920F931F93CF93DF9396
:1023D0007C018B01DB0113968C9181FF14C0C0E05E
:1023E000D0E00BC0D8011896ED91FC911997B80177
:1023F0000995892B11F0CFEFDFEFF70181917F0174
:102400008111F0CF02C0CFEFDFEFCE01CDB7DEB745
:10241000E6E0B1C2ACE0B0E0EFE0F2E184C27C0102
:102420006B018A01FC0117821682838181FFBAC188
:1024300088248394912C8C0E9D1EF7019381F601C4
:1024400093FD859193FF81916F01882309F4A6C1C3
:10245000853239F493FD859193FF81916F01853227
:1024600021F4B70190E082DFE8CF712C312C20E01D
:102470002032A8F48B3261F028F4803251F083329C
:1024800071F40BC08D3239F0803349F4216028C0DB
:102490002260246025C0286023C0206121C027FD60
:1024A00027C0382F30533A3078F426FF06C0FAE0C0
:1024B0007F9E300D1124732E13C08AE0389E300D9C
:1024C0001124332E20620CC08E3221F426FD66C109
:1024D000206406C08C3611F4206802C0883641F4AE
:1024E000F60193FD859193FF81916F018111C0CF1A
:1024F000982F9554933018F09052933028F40C5F35
:102500001F4FFFE3F9830DC0833631F0833771F03D
:10251000833509F05AC022C0F801808189830E5F9B
:102520001F4F66246394712C540114C02801F2E0FB
:102530004F0E511CF801A080B18026FF03C0672D0B
:1025400070E002C06FEF7FEFC5012C8783D13C01A3
:1025500082012C856FE7262E222217C02801F2E087
:102560004F0E511CF801A080B18026FF03C0672DDB
:1025700070E002C06FEF7FEFC5012C8760D13C0196
:102580002C8550E8252E222A820123FC1AC005C082
:10259000B70180E290E0EADE3A94832D90E068167D
:1025A0007906B0F30EC0F50127FC859127FE8191D5
:1025B0005F01B70190E0DADE31103A94F1E06F1A72
:1025C00071086114710479F7E6C0843611F0893618
:1025D00039F5F80127FF07C06081718182819381FD
:1025E0000C5F1F4F08C060817181882777FD80953F
:1025F000982F0E5F1F4F4FE6642E622297FF09C08F
:1026000090958095709561957F4F8F4F9F4FF0E823
:102610006F2A2AE030E0A40128D1A82EA81843C0D0
:10262000853731F43FEEB32EB2222AE030E024C0E9
:1026300099EFB92EB2228F36B9F020F4883509F01F
:10264000ADC00DC0803721F0883709F0A7C002C0A7
:1026500020E1B22AB4FE0BC084E0B82A08C024FFEF
:1026600009C0E6E0BE2A06C028E030E005C020E14F
:1026700030E002C020E132E0F801B7FE07C060811F
:102680007181828193810C5F1F4F06C060817181CF
:1026900080E090E00E5F1F4FA401E7D0A82EA8189D
:1026A0008FE7682E6B2066FE0BC0362D3E7FA71489
:1026B00050F464FE0AC062FC08C0362D3E7E05C0A0
:1026C000BA2C362D03C0BA2C01C0B72C34FF0DC074
:1026D000FE01EA0DF11D8081803311F4397E09C0BD
:1026E00032FF06C0B394B39404C0832F867809F0F8
:1026F000B39433FD13C030FF0EC07A2CB31458F4DA
:10270000730C7B18B32C07C0B70180E290E03C87C4
:102710002DDEB3943C85B314B8F304C0B31410F4A5
:102720003B1801C0312C34FF11C0B70180E390E0A9
:102730003C871CDE3C8532FF1CC031FF03C088E5AE
:1027400090E002C088E790E0B7010CC0832F867844
:1027500081F031FD02C080E201C08BE237FD8DE2E5
:10276000B70190E003DE05C0B70180E390E0FEDD35
:102770007A94A714C8F3AA94F401EA0DF11DB701E5
:10278000808190E0F3DDA110F6CF05C0B70180E2B3
:1027900090E0ECDD3A943110F9CF4FCEF70126816D
:1027A000378102C02FEF3FEFC9012C96E2E1D7C07D
:1027B000DC01CB01FC01F999FECF06C0F2BDE1BD01
:1027C000F89A319600B40D9241505040B8F70895F0
:1027D000F999FECF92BD81BDF89A992780B50895E9
:1027E000DC01A40FB51F4150504040F0CB01840FD5
:1027F000951F2E9105D041505040D8F70895262FAF
:10280000F999FECF92BD81BDF89A019700B40216E6
:1028100039F01FBA20BD0FB6F894FA9AF99A0FBE94
:102820000895262FF999FECF1FBA92BD81BD20BD14
:102830000FB6F894FA9AF99A0FBE01960895FC0122
:102840000590615070400110D8F7809590958E0FDB
:102850009F1F0895FC016150704001900110D8F74E
:10286000809590958E0F9F1F0895FA01AA27283012
:1028700051F1203181F1E8946F936E7F6E5F7F4F4D
:102880008F4F9F4FAF4FB1E03ED0B4E03CD0670FC9
:10289000781F891F9A1FA11D680F791F8A1F911D1C
:1028A000A11D6A0F711D811D911DA11D20D009F46C
:1028B00068943F912AE0269F11243019305D3193AE
:1028C000DEF6CF010895462F4770405D4193B3E097
:1028D0000FD0C9F7F6CF462F4F70405D4A3318F03E
:1028E000495D31FD4052419302D0A9F7EACFB4E0EF
:1028F000A6959795879577956795BA95C9F70097A7
:102900006105710508959B01AC010A2E0694579547
:10291000479537952795BA95C9F7620F731F841F9E
:10292000951FA01D08952F923F924F925F926F9234
:102930007F928F929F92AF92BF92CF92DF92EF924F
:10294000FF920F931F93CF93DF93CDB7DEB7CA1BD0
:10295000DB0B0FB6F894DEBF0FBECDBF09942A88FB
:10296000398848885F846E847D848C849B84AA84A3
:10297000B984C884DF80EE80FD800C811B81AA8130
:10298000B981CE0FD11D0FB6F894DEBF0FBECDBFFB
:08299000ED010895F894FFCF5A
:1029980000831000000104100000018208000001FB
:1029A8000000000000000000000000E7E7E7E7E79C
:1029B8000000160520007B226368616E6E656C223C
:1029C8003A25692C22686F6D655F61646472223AEA
:1029D8005B25692C2025692C2025692C2025695D1B
:1029E8002C0D0A00226E6F64652569223A207B222D
:1029F8006E756D626572223A25692C2022656E61BA
:102A0800626C65223A25692C2022616464726573C0
:102A180073223A25692C20226E616D65223A22259F
:102A280073222C202274797065223A25697D2C0D39
:102A38000A00226E6F64652569223A207B226E7532
:102A48006D626572223A25692C2022656E61626C7E
:102A580065223A25692C20226164647265737322A9
:102A68003A25692C20226E616D65223A222573224F
:102A78002C202274797065223A25697D0D0A007B25
:102A8800200D0A002C200D0A226E6F64652569222C
:102A98003A207B00226D73676964223A25692C20ED
:102AA8000022646174612569223A25692C2000227C
:102AB8006461746130223A2569207D000D0A207D09
:102AC8000D0A0073746F700073746F7065640D0A7B
:102AD80000737461727400737461727465640D0AB2
:102AE800006366675F636800486F6D6520436861CF
:102AF8006E6E656C3A202569200D0A006366675F73
:102B0800686F6D655F61646472000D0A486F6D657A
:102B18002041646472657373003A256900656E61CB
:102B2800626C65006E6F646520656E61626C6564D9
:102B38003A2025690D0A0064697361626C65006E4C
:102B48006F64652064697361626C65643A20256905
:102B58000D0A006366675F6E6F64655F6E616D6521
:102B6800006E6F6465206E616D653A2025692025C9
:102B780073200D0A006366675F6E6F64655F61644A
:102B88006472006E6F646520616464726573733A81
:102B98002025692025690D0A006366675F6E6F64EA
:102BA800655F74797065006E6F646520747970650F
:102BB8003A2025692025690D0A007072696E745FD4
:102BC8006366670072657365740067657400736592
:102BD8006E6400446174612053656E74205375639C
:102BE8006365737366756C6C790D0A004461746172
:102BF8002053656E74204661696C65640D0A007324
:102C0800656E645F63666700436F6E6669677572B9
:102C18006174696F6E2053656E74205375636365C4
:102C2800737366756C6C790D0A00436F6E6669671D
:102C380075726174696F6E2053656E7420466169A0
:0C2C48006C65640D0A0068656C7000008B
:00000001FF
