:100000000C9434000C94AE000C945A000C945A00DA
:100010000C945A000C945A000C945A000C945A00F8
:100020000C945A000C945A000C945A000C948800BA
:100030000C945A000C945A000C945A000C945A00D8
:100040000C945A000C945A000C945A000C945A00C8
:100050000C945A000C945A000C945A000C945A00B8
:100060000C945A000C945A0011241FBECFEFD4E018
:10007000DEBFCDBF14BE88E10FB6F8948093600058
:10008000109260000FBE11E0A0E0B1E0E8E7F6E0FA
:1000900002C005900D92A630B107D9F711E0A6E095
:1000A000B1E001C01D92A831B107E1F70E94E30061
:1000B0000C943A030C94000080910B01813011F4F0
:1000C0002F9A08952F9808950E94D40180910B01D2
:1000D00080930C018091090180930D0180910A01A8
:1000E00080930E018091080180930F018091060199
:1000F000809310018F5F8093060180911701809398
:1001000011018CE091E00E94AE010E940C02089562
:100110001F920F920FB60F9211242F933F934F937C
:100120005F936F937F938F939F93AF93BF93EF935F
:10013000FF93F8940E9464007894FF91EF91BF912F
:10014000AF919F918F917F916F915F914F913F916F
:100150002F910F900FBE0F901F9018951F920F9226
:100160000FB60F9211242F933F934F935F936F938A
:100170007F938F939F93AF93BF93EF93FF93F894E5
:1001800080911601813029F40E94E4021092160138
:1001900008C00E947B02813021F40E945C000E9412
:1001A00064007894FF91EF91BF91AF919F918F91EF
:1001B0007F916F915F914F913F912F910F900FBE63
:1001C0000F901F901895FF920F931F93CF93DF937B
:1001D000279A0E942301589A78940E940C02E89A68
:1001E00085E090E00E9420038093170186E296E26A
:1001F000909389008093880080918100886080932B
:1002000081008091810085608093810080916F00E2
:10021000826080936F00FF24F39408E110E0CEE049
:10022000D0E04899FECF0E944702F0921601489B09
:10023000FECF0FB6F894A895009360000FBEC09350
:1002400060007894EECF84B18D6284B92C9A2A9A9A
:1002500081E58CBD089512C0242F30E0215030403C
:10026000FC01E20FF31F50815EBD0DB407FEFDCF10
:100270005EB5260F371FF90150834150442361F7C3
:1002800008950AC0FC01E60FF11D319720812EBDB3
:100290000DB407FEFDCF61506623A1F708958EBD12
:1002A0000DB407FEFDCF8EB508952A980E944F0128
:1002B0002A9A0895DF93CF930F92CDB7DEB72A988D
:1002C0008F71806269830E944F016981862F0E942D
:1002D0004F012A9A0F90CF91DF9108950F931F93AA
:1002E000DF93CF930F92CDB7DEB78B012A988F7132
:1002F00049830E944F01C801B80149810E942B0126
:100300002A9A0F90CF91DF911F910F9108950F932B
:100310001F93DF93CF930F92CDB7DEB78B012A984F
:100320008F71806249830E944F01C8014981642F07
:100330000E9441012A9A0F90CF91DF911F910F9156
:1003400008958FEF0E945501282F84FD05C081E09C
:1003500025FD03C080E0089581E00895CF93DF93E9
:10036000EC01289880E06EE00E945A0187E060E38B
:100370000E945A012A9881EE0E944F012A9A2A98D7
:1003800080EA0E944F01CE0166E00E9441012A9A54
:10039000289A84E08A95F1F728980E94A101882381
:1003A000E1F3DF91CF9108950F931F93DF93CF93E4
:1003B00000D000D00F92CDB7DEB7289880E06EE075
:1003C0000E945A018E010F5F1F4FC80160E070E06C
:1003D00045E050E00E94100386E090E00E94200378
:1003E000682F85E00E945A018AE0B80145E00E942A
:1003F000870180E1B80145E00E94870187E060E75E
:100400000E945A010F900F900F900F900F90CF9174
:10041000DF911F910F9108950F931F93DF93CF9357
:1004200000D000D00F92CDB7DEB7289880E06FE300
:100430000E945A018E010F5F1F4FC80160E070E0FB
:1004400045E050E00E94100386E090E00E94200307
:10045000682F85E00E945A018AE0B80145E00E94B9
:10046000870181E166E00E945A0187E060E70E940F
:100470005A0182EE0E945501289A0F900F900F901A
:100480000F900F90CF91DF911F910F910895DF93FF
:10049000CF9300D000D00F92CDB7DEB7DE0111961A
:1004A000E0E0F1E085E001900D928150E1F72898BD
:1004B0006FE30E945A0187E060E70E945A0185E0DD
:1004C00062E00E945A018AE0BE016F5F7F4F45E003
:1004D0000E94870181E167E00E945A01289A82EE1A
:1004E0000E945501E89A0F900F900F900F900F9077
:1004F000CF91DF9108952A9881E60E944F018CE008
:1005000091E0BC0146E00E942B012A9A87E060E757
:100510000E945A0180911701909111018917B1F43D
:1005200080910C0180930B0180910D018093090152
:1005300080910E0180930A0180910F018093080140
:10054000809110018093070181E0089594E6899FCE
:10055000C00111240197F1F70E94D4018CE091E0D1
:100560000E94AE010E940C0280E008950F931F9339
:10057000CF93DF93EC0186E090E06E810E94280328
:1005800085E090E06D810E94280304E010E0C8013E
:100590006C810E942803C80101976B810E94280387
:1005A000C80102976A810E942803C80103976981E4
:1005B0000E942803C801049768810E942803DF91E4
:1005C000CF911F910F9108950F931F93DF93CF93B6
:1005D000CDB7DEB72E970FB6F894DEBF0FBECDBFF6
:1005E0002A9881E60E944F01CE0108968E010F5F86
:1005F0001F4FB80147E00E942B012A9AC8010E94B0
:10060000B60287E060E70E945A012E960FB6F89472
:10061000DEBF0FBECDBFCF91DF911F910F91089527
:10062000DC01CB01FC01F999FECF06C0F2BDE1BDB2
:10063000F89A319600B40D9241505040B8F70895A1
:10064000F999FECF92BD81BDF89A992780B508959A
:10065000262FF999FECF92BD81BDF89A019700B47B
:10066000021639F01FBA20BD0FB6F894FA9AF99A1B
:080670000FBE0895F894FFCFBE
:06067800E7E7E7E7E700F9
:00000001FF
