:100000000C9434000C94FC030C945D000C945D0083
:100010000C945D000C945D000C945D000C945D00EC
:100020000C945D000C945D000C945D000C94330402
:100030000C945D000C945D000C945D000C945D00CC
:100040000C945D000C945D000C945D000C945D00BC
:100050000C945D000C945D000C945D000C945D00AC
:100060000C945D000C945D0011241FBECFEFD4E012
:10007000DEBFCDBF84E590E0FC01108288E10FB6C1
:10008000F89480936000109260000FBE11E0A0E031
:10009000B1E0ECE8FAE002C005900D92A630B1079D
:1000A000D9F711E0A6E0B1E001C01D92A931B10776
:1000B000E1F70E94A4040C9444050C940000DF9323
:1000C000CF93CDB7DEB784E290E024E230E0F901CF
:1000D00020812D62FC01208385E290E025E230E062
:1000E000F90120812061FC01208385E290E025E276
:1000F00030E0F90120812460FC0120838CE490E051
:1001000021E5FC012083CF91DF910895DF93CF9308
:10011000CDB7DEB727970FB6F894DEBF0FBECDBFC1
:100120009C838B837E836D834F838F81898332C0D1
:100130008EE490E02981222F30E0215030404B8125
:100140005C81240F351FF9012081FC012083000010
:100150008DE490E0FC0180818823D4F78981882F89
:1001600090E001972D813E81820F931F2EE430E0B5
:10017000F9012081FC0120838981882F90E001977B
:100180002D813E81820F931FFC0180818A838981AA
:10019000815089838981882359F627960FB6F89470
:1001A000DEBF0FBECDBFCF91DF910895DF93CF9318
:1001B00000D000D0CDB7DEB79B838A836C838C815F
:1001C000898319C08EE490E02981222F30E02150EC
:1001D00030404A815B81240F351FF9012081FC01E9
:1001E000208300008DE490E0FC0180818823D4F717
:1001F0008981815089838981882321F70F900F900D
:100200000F900F90CF91DF910895DF93CF930F92CE
:10021000CDB7DEB789838EE490E02981FC0120838D
:1002200000008DE490E0FC0180818823D4F78EE407
:1002300090E0FC0180810F90CF91DF910895DF93D2
:10024000CF9300D0CDB7DEB78A8385E290E025E278
:1002500030E0F90120812B7FFC0120838A810E94FC
:100260000501898385E290E025E230E0F9012081F3
:100270002460FC01208389810F900F90CF91DF9142
:100280000895DF93CF9300D0CDB7DEB789836A831B
:1002900085E290E025E230E0F90120812B7FFC012E
:1002A000208389818F7180620E9405018A810E946A
:1002B000050185E290E025E230E0F901208124602B
:1002C000FC0120830F900F90CF91DF910895DF9371
:1002D000CF9300D000D0CDB7DEB789837B836A830C
:1002E0004C8385E290E025E230E0F90120812B7F0C
:1002F000FC01208389818F710E9405018A819B8185
:100300002A813B81B9014C810E94860085E290E000
:1003100025E230E0F90120812460FC0120830F9068
:100320000F900F900F90CF91DF910895DF93CF93AF
:1003300000D000D0CDB7DEB789837B836A834C833E
:1003400085E290E025E230E0F90120812B7FFC017D
:10035000208389818F7180620E9405018A819B813F
:100360006C810E94D60085E290E025E230E0F90140
:1003700020812460FC0120830F900F900F900F903C
:10038000CF91DF910895DF93CF930F92CDB7DEB772
:100390008FEF0E941F0189838981882F90E08071EF
:1003A0009070009739F48981882F90E08072907066
:1003B000009711F081E001C080E00F90CF91DF91B4
:1003C00008951F93DF93CF9300D00F92CDB7DEB780
:1003D0009B838A8385E290E025E230E0F901208169
:1003E0002E7FFC01208380E06EE00E94410187E0C7
:1003F00060E30E94410185E290E025E230E0F901EE
:1004000020812B7FFC01208381EE0E94050185E283
:1004100090E025E230E0F90120812460FC01208396
:1004200085E290E025E230E0F90120812B7FFC019C
:10043000208380EA0E9405018A819B8166E00E94F8
:10044000D60085E290E025E230E0F90120812460C9
:10045000FC01208385E290E025E230E0F901208173
:100460002160FC01208384E089838981182F1A95FB
:10047000F1F7198385E290E025E230E0F90120816F
:100480002E7FFC01208300000E94C3018823E1F33A
:100490000F900F900F90CF91DF911F910895DF93F0
:1004A000CF9300D000D00F92CDB7DEB785E290E0B9
:1004B00025E230E0F90120812E7FFC01208380E0DD
:1004C0006EE00E94410122E030E0CE010196B901C8
:1004D00045E050E00E941A0580E090E00E942A0565
:1004E000982F85E0692F0E9441018AE09E012F5FCD
:1004F0003F4FB90145E00E94960180E19E012F5FC8
:100500003F4FB90145E00E94960187E060E70E94F5
:1005100041010F900F900F900F900F90CF91DF91AE
:100520000895DF93CF9300D000D00F92CDB7DEB700
:1005300085E290E025E230E0F90120812E7FFC0188
:10054000208380E06FE30E94410122E030E0CE0191
:100550000196B90145E050E00E941A0580E090E064
:100560000E942A05982F85E0692F0E9441018AE0A8
:100570009E012F5F3F4FB90145E00E94960181E146
:1005800066E00E94410187E060E70E94410182EE3F
:100590000E941F0185E290E025E230E0F901208110
:1005A0002160FC0120830F900F900F900F900F900F
:1005B000CF91DF910895DF93CF9300D000D000D08A
:1005C000CDB7DEB7CE01029620E031E045E0F9017B
:1005D00000802F5F3F4FFC01008201964150442371
:1005E000B1F782E0898385E290E025E230E0F9010D
:1005F00020812E7FFC01208380E06FE30E94410177
:1006000087E060E70E94410185E069810E94410125
:100610009E012E5F3F4F8AE0B90145E00E9496019E
:1006200081E167E00E94410185E290E025E230E04F
:10063000F90120812160FC01208382EE0E941F01CC
:100640008DE390E02DE330E0F90120812160FC0191
:10065000208326960FB6F894DEBF0FBECDBFCF9194
:10066000DF910895DF93CF93CDB7DEB785E290E0B9
:1006700025E230E0F90120812B7FFC01208381E617
:100680000E9405018EE091E02EE031E0B90146E0E4
:100690000E94860085E290E025E230E0F9012081A9
:1006A0002460FC01208387E060E70E944101809183
:1006B0000E0180930C0180910F0180930A018091BB
:1006C000100180930B0180911101809309018091A9
:1006D0001201809308018091130180930D01CF9145
:1006E000DF910895DF93CF93CDB7DEB72E970FB686
:1006F000F894DEBF0FBECDBF85E290E025E230E08A
:10070000F90120812B7FFC01208381E60E940501F5
:10071000CE0108969E012F5F3F4FB90147E00E942E
:10072000860085E290E025E230E0F9012081246036
:10073000FC012083CE0101960E94AB0387E060E7B5
:100740000E9441012E960FB6F894DEBF0FBECDBFBA
:10075000CF91DF910895DF93CF9300D0CDB7DEB76F
:100760009A83898389819A810696FC01208180E0A1
:1007700090E0622F0E94320589819A810596FC01E2
:10078000208181E090E0622F0E94320589819A8168
:100790000496FC01208186E090E0622F0E943205E1
:1007A00089819A810396FC01208185E090E0622F87
:1007B0000E94320589819A810296FC01208184E0A1
:1007C00090E0622F0E94320589819A810196FC0196
:1007D000208183E090E0622F0E94320589819A8116
:1007E000FC01208182E090E0622F0E9432050F9090
:1007F0000F90CF91DF9108951F920F920FB60F9235
:1008000011242F933F934F935F936F937F938F9315
:100810009F93AF93BF93EF93FF93DF93CF93CDB7A6
:10082000DEB7F89480911801813029F40E94720398
:100830001092180104C00E9432030E948004789430
:10084000CF91DF91FF91EF91BF91AF919F918F91E8
:100850007F916F915F914F913F912F910F900FBEBC
:100860000F901F9018951F920F920FB60F921124A0
:100870002F933F934F935F936F937F938F939F93A8
:10088000AF93BF93EF93FF93DF93CF93CDB7DEB7D3
:10089000F8940E944F0280910C0180930E01809188
:1008A0000A0180930F0180910B01809310018091C8
:1008B00009018093110180910701809312018F5FDC
:1008C0008093070180910601809313018EE091E0EF
:1008D0000E94E1010E9491027894CF91DF91FF91F3
:1008E000EF91BF91AF919F918F917F916F915F91A8
:1008F0004F913F912F910F900FBE0F901F90189521
:10090000DF93CF93CDB7DEB79091060180910D01B3
:100910009817B9F480910C01813051F485E290E090
:1009200025E230E0F90120812068FC01208309C024
:1009300085E290E025E230E0F90120812F77FC018B
:100940002083CF91DF910895DF93CF93CDB7DEB7AA
:1009500084E290E024E230E0F90120812068FC018B
:1009600020830E945F008BE290E02BE230E0F901EF
:1009700020812160FC01208378940E9491028DE304
:1009800090E02DE330E0F90120812160FC0120831B
:1009900081E090E00E942A058093060181E890E0C2
:1009A00021E830E0F90120812860FC01208388E8FB
:1009B00090E026E236E2FC013183208381E890E07A
:1009C00021E830E0F90120812560FC0120838FE6D9
:1009D00090E02FE630E0F90120812260FC012083C5
:1009E00001C0000089E290E0FC018081882F90E046
:1009F000817090700097A9F70E94DB0281E08093DC
:100A00001801000089E290E0FC018081882F90E0CD
:100A1000817090700097B1F388E190E02EE030E0B3
:100A20000FB6F894A895809360000FBE20936000E5
:100A30007894D8CFDC01CB01FC01F999FECF06C038
:100A4000F2BDE1BDF89A319600B40D92415050408C
:100A5000B8F70895F999FECF92BD81BDF89A99270C
:100A600080B50895262FF999FECF92BD81BDF89AE1
:100A7000019700B4021639F01FBA20BD0FB6F894E2
:0C0A8000FA9AF99A0FBE0895F894FFCF7F
:060A8C00E7E7E7E7E700E1
:00000001FF
