:100000000C9434000C94AB000C945A000C945A00DD
:100010000C945A000C945A000C945A000C945A00F8
:100020000C945A000C945A000C945A000C945C00E6
:100030000C945A000C945A000C945A000C945A00D8
:100040000C945A000C945A000C945A000C945A00C8
:100050000C945A000C945A000C945A000C945A00B8
:100060000C945A000C945A0011241FBECFEFD4E018
:10007000DEBFCDBF14BE88E10FB6F8948093600058
:10008000109260000FBE11E0A0E0B1E0E8E4F6E0FD
:1000900002C005900D92A630B107D9F711E0A6E095
:1000A000B1E001C01D92A831B107E1F70E94DC0068
:1000B0000C9422030C9400001F920F920FB60F9223
:1000C00011242F933F934F935F936F937F938F935D
:1000D0009F93AF93BF93EF93FF93F8940E94CD014A
:1000E00080910B0180930C018091090180930D0197
:1000F00080910A0180930E018091080180930F0185
:1001000080910601809310018F5F8093060180919A
:100110001701809311018CE091E00E94A7010E94D9
:1001200005027894FF91EF91BF91AF919F918F91CC
:100130007F916F915F914F913F912F910F900FBEE3
:100140000F901F90189580910B01813011F42F9A18
:1001500008952F9808951F920F920FB60F921124B1
:100160002F933F934F935F936F937F938F939F93BF
:10017000AF93BF93EF93FF93F89480911601813072
:1001800029F40E94CC021092160104C00E9474024D
:100190000E94A3007894FF91EF91BF91AF919F913E
:1001A0008F917F916F915F914F913F912F910F9020
:1001B0000FBE0F901F901895FF920F931F93CF9330
:1001C000DF93279A0E941C01589A78940E94050296
:1001D000E89A85E090E00E940803809317018091DF
:1001E000810088608093810086E296E29093890086
:1001F0008093880080918100856080938100809148
:100200006F00826080936F00FF24F39408E110E098
:10021000CEE0D0E04899FECF0E944002F092160155
:10022000489BFECF0FB6F894A895009360000FBED0
:10023000C09360007894EECF84B18D6284B92C9A1B
:100240002A9A81E58CBD089512C0242F30E02150F8
:100250003040FC01E20FF31F50815EBD0DB407FE7C
:10026000FDCF5EB5260F371FF9015083415044235F
:1002700061F708950AC0FC01E60FF11D3197208156
:100280002EBD0DB407FEFDCF61506623A1F7089582
:100290008EBD0DB407FEFDCF8EB508952A980E943D
:1002A00048012A9A0895DF93CF930F92CDB7DEB716
:1002B0002A988F71806269830E9448016981862F24
:1002C0000E9448012A9A0F90CF91DF9108950F93D1
:1002D0001F93DF93CF930F92CDB7DEB78B012A9890
:1002E0008F7149830E944801C801B80149810E9469
:1002F00024012A9A0F90CF91DF911F910F910895B9
:100300000F931F93DF93CF930F92CDB7DEB78B017F
:100310002A988F71806249830E944801C8014981EF
:10032000642F0E943A012A9A0F90CF91DF911F917A
:100330000F9108958FEF0E944E01282F84FD05C074
:1003400081E025FD03C080E0089581E00895CF930A
:10035000DF93EC01289880E06EE00E94530187E073
:1003600060E30E9453012A9881EE0E9448012A9A74
:100370002A9880EA0E944801CE0166E00E943A0174
:100380002A9A289A84E08A95F1F728980E949A017F
:100390008823E1F3DF91CF9108950F931F93DF93AB
:1003A000CF9300D000D00F92CDB7DEB7289880E071
:1003B0006EE00E9453018E010F5F1F4FC80160E085
:1003C00070E045E050E00E94F80286E090E00E9474
:1003D0000803682F85E00E9453018AE0B80145E0D8
:1003E0000E94800180E1B80145E00E94800187E021
:1003F00060E70E9453010F900F900F900F900F90A5
:10040000CF91DF911F910F9108950F931F93DF9369
:10041000CF9300D000D00F92CDB7DEB7289880E000
:100420006FE30E9453018E010F5F1F4FC80160E010
:1004300070E045E050E00E94F80286E090E00E9403
:100440000803682F85E00E9453018AE0B80145E067
:100450000E94800181E166E00E94530187E060E72D
:100460000E94530182EE0E944E01289A0F900F9035
:100470000F900F900F90CF91DF911F910F910895E2
:10048000DF93CF9300D000D00F92CDB7DEB7DE015F
:100490001196E0E0F1E085E001900D928150E1F7E6
:1004A00028986FE30E94530187E060E70E945301A0
:1004B00085E062E00E9453018AE0BE016F5F7F4FDA
:1004C00045E00E94800181E167E00E945301289A83
:1004D00082EE0E944E01E89A0F900F900F900F90BD
:1004E0000F90CF91DF9108952A9881E60E944801EC
:1004F0008CE091E0BC0146E00E9424012A9A87E04A
:1005000060E70E94530190911701809111019817A3
:10051000A1F480910C0180930B0180910D018093D7
:10052000090180910E0180930A0180910F0180934F
:100530000801809110018093070108950F931F9384
:10054000CF93DF93EC0186E090E06E810E94100370
:1005500085E090E06D810E94100304E010E0C80186
:100560006C810E941003C80101976B810E941003E7
:10057000C80102976A810E941003C801039769812C
:100580000E941003C801049768810E941003DF9144
:10059000CF911F910F9108950F931F93DF93CF93E6
:1005A000CDB7DEB72E970FB6F894DEBF0FBECDBF26
:1005B0002A9881E60E944801CE0108968E010F5FBD
:1005C0001F4FB80147E00E9424012A9AC8010E94E7
:1005D0009E0287E060E70E9453012E960FB6F894C2
:1005E000DEBF0FBECDBFCF91DF911F910F91089558
:1005F000DC01CB01FC01F999FECF06C0F2BDE1BDE3
:10060000F89A319600B40D9241505040B8F70895D1
:10061000F999FECF92BD81BDF89A992780B50895CA
:10062000262FF999FECF92BD81BDF89A019700B4AB
:10063000021639F01FBA20BD0FB6F894FA9AF99A4B
:080640000FBE0895F894FFCFEE
:06064800E7E7E7E7E70029
:00000001FF
