:100000000C9434000C94B1000C945A000C945A00D7
:100010000C945A000C945A000C945A000C945A00F8
:100020000C945A000C945A000C945A000C945C00E6
:100030000C945A000C945A000C945A000C945A00D8
:100040000C945A000C945A000C945A000C945A00C8
:100050000C945A000C945A000C945A000C945A00B8
:100060000C945A000C945A0011241FBECFEFD4E018
:10007000DEBFCDBF14BE88E10FB6F8948093600058
:10008000109260000FBE11E0A0E0B1E0E0E5F6E004
:1000900002C005900D92A630B107D9F711E0A6E095
:1000A000B1E001C01D92A931B107E1F70E94E20061
:1000B0000C9426030C9400001F920F920FB60F921F
:1000C00011242F933F934F935F936F937F938F935D
:1000D0009F93AF93BF93EF93FF93F8940E94D30144
:1000E00080910B0180930D018091090180930E0195
:1000F00080910A0180930F01809108018093100183
:1001000080910601809311018F5F80930601809199
:100110001801809312018DE091E00E94AD010E94D0
:100120000B027894FF91EF91BF91AF919F918F91C6
:100130007F916F915F914F913F912F910F900FBEE3
:100140000F901F9018959091180180910C019817AD
:1001500039F480910B01813011F42F9A08952F9872
:1001600008951F920F920FB60F9211242F933F9371
:100170004F935F936F937F938F939F93AF93BF93AF
:10018000EF93FF93F89480911701813029F40E9436
:10019000D0021092170104C00E947A020E94A300AC
:1001A0007894FF91EF91BF91AF919F918F917F9143
:1001B0006F915F914F913F912F910F900FBE0F90D4
:1001C0001F901895FF920F931F93CF93DF93279A59
:1001D0000E942201589A78940E940B02E89A85E0C6
:1001E00090E00E940C038093180180918100886048
:1001F0008093810086E296E2909389008093880044
:100200008091810085608093810080916F00826081
:1002100080936F00FF24F39408E110E0CEE0D0E07B
:100220004899FECF0E944602F0921701489BFECFEC
:100230000FB6F894A895009360000FBEC0936000BD
:100240007894EECF84B18D6284B92C9A2A9A81E594
:100250008CBD089512C0242F30E021503040FC01A5
:10026000E20FF31F50815EBD0DB407FEFDCF5EB5FA
:10027000260F371FF90150834150442361F7089539
:100280000AC0FC01E60FF11D319720812EBD0DB48F
:1002900007FEFDCF61506623A1F708958EBD0DB412
:1002A00007FEFDCF8EB508952A980E944E012A9A26
:1002B0000895DF93CF930F92CDB7DEB72A988F7151
:1002C000806269830E944E016981862F0E944E01DF
:1002D0002A9A0F90CF91DF9108950F931F93DF9388
:1002E000CF930F92CDB7DEB78B012A988F714983D8
:1002F0000E944E01C801B80149810E942A012A9A30
:100300000F90CF91DF911F910F9108950F931F933D
:10031000DF93CF930F92CDB7DEB78B012A988F7101
:10032000806249830E944E01C8014981642F0E9466
:1003300040012A9A0F90CF91DF911F910F9108955C
:100340008FEF0E945401282F84FD05C081E025FD18
:1003500003C080E0089581E00895CF93DF93EC011E
:10036000289880E06EE00E94590187E060E30E94D7
:1003700059012A9881EE0E944E012A9A2A9880EA11
:100380000E944E01CE0166E00E9440012A9A289AFE
:1003900084E08A95F1F728980E94A0018823E1F370
:1003A000DF91CF9108950F931F93DF93CF9300D0E8
:1003B00000D00F92CDB7DEB7289880E06EE00E94A3
:1003C00059018E010F5F1F4FC80160E070E045E0EA
:1003D00050E00E94FC0286E090E00E940C03682F2F
:1003E00085E00E9459018AE0B80145E00E9486013B
:1003F00080E1B80145E00E94860187E060E70E9445
:1004000059010F900F900F900F900F90CF91DF91A7
:100410001F910F9108950F931F93DF93CF9300D0F7
:1004200000D00F92CDB7DEB7289880E06FE30E942E
:1004300059018E010F5F1F4FC80160E070E045E079
:1004400050E00E94FC0286E090E00E940C03682FBE
:1004500085E00E9459018AE0B80145E00E948601CA
:1004600081E166E00E94590187E060E70E9459013E
:1004700082EE0E945401289A0F900F900F900F90D7
:100480000F90CF91DF911F910F910895DF93CF933C
:1004900000D000D00F92CDB7DEB7DE011196E0E0BC
:1004A000F1E085E001900D928150E1F728986FE32B
:1004B0000E94590187E060E70E94590185E062E0EF
:1004C0000E9459018AE0BE016F5F7F4F45E00E94A4
:1004D000860181E167E00E945901289A82EE0E941C
:1004E0005401E89A0F900F900F900F900F90CF91BA
:1004F000DF9108952A9881E60E944E016DE071E037
:10050000CB0146E00E942A012A9A87E060E70E9418
:10051000590180910D0180930B0180910E01809310
:10052000090180910F0180930A018091100180934D
:10053000080180911101809307018091120180933D
:100540000C0108950F931F93CF93DF93EC0186E086
:1005500090E06E810E94140385E090E06D810E941E
:10056000140304E010E0C8016C810E941403C80168
:1005700001976B810E941403C80102976A810E944F
:100580001403C801039769810E941403C8010497EA
:1005900068810E941403DF91CF911F910F910895FC
:1005A0000F931F93DF93CF93CDB7DEB72E970FB680
:1005B000F894DEBF0FBECDBF2A9881E60E944E019F
:1005C000CE0108968E010F5F1F4FB80147E00E94D1
:1005D0002A012A9AC8010E94A20287E060E70E94CD
:1005E00059012E960FB6F894DEBF0FBECDBFCF9146
:1005F000DF911F910F910895DC01CB01FC01F99966
:10060000FECF06C0F2BDE1BDF89A319600B40D925E
:1006100041505040B8F70895F999FECF92BD81BD81
:10062000F89A992780B50895262FF999FECF92BDA3
:1006300081BDF89A019700B4021639F01FBA20BDA7
:100640000FB6F894FA9AF99A0FBE0895F894FFCF6E
:06065000E7E7E7E7E70021
:00000001FF
